{
  "abi": [
    {
      "inputs": [
        {
          "internalType": "uint256",
          "name": "_totalSupply",
          "type": "uint256"
        }
      ],
      "stateMutability": "nonpayable",
      "type": "constructor"
    },
    {
      "inputs": [
        {
          "internalType": "address",
          "name": "spender",
          "type": "address"
        },
        {
          "internalType": "uint256",
          "name": "allowance",
          "type": "uint256"
        },
        {
          "internalType": "uint256",
          "name": "needed",
          "type": "uint256"
        }
      ],
      "name": "ERC20InsufficientAllowance",
      "type": "error"
    },
    {
      "inputs": [
        {
          "internalType": "address",
          "name": "sender",
          "type": "address"
        },
        {
          "internalType": "uint256",
          "name": "balance",
          "type": "uint256"
        },
        {
          "internalType": "uint256",
          "name": "needed",
          "type": "uint256"
        }
      ],
      "name": "ERC20InsufficientBalance",
      "type": "error"
    },
    {
      "inputs": [
        {
          "internalType": "address",
          "name": "approver",
          "type": "address"
        }
      ],
      "name": "ERC20InvalidApprover",
      "type": "error"
    },
    {
      "inputs": [
        {
          "internalType": "address",
          "name": "receiver",
          "type": "address"
        }
      ],
      "name": "ERC20InvalidReceiver",
      "type": "error"
    },
    {
      "inputs": [
        {
          "internalType": "address",
          "name": "sender",
          "type": "address"
        }
      ],
      "name": "ERC20InvalidSender",
      "type": "error"
    },
    {
      "inputs": [
        {
          "internalType": "address",
          "name": "spender",
          "type": "address"
        }
      ],
      "name": "ERC20InvalidSpender",
      "type": "error"
    },
    {
      "inputs": [
        {
          "internalType": "address",
          "name": "owner",
          "type": "address"
        }
      ],
      "name": "OwnableInvalidOwner",
      "type": "error"
    },
    {
      "inputs": [
        {
          "internalType": "address",
          "name": "account",
          "type": "address"
        }
      ],
      "name": "OwnableUnauthorizedAccount",
      "type": "error"
    },
    {
      "anonymous": false,
      "inputs": [
        {
          "indexed": true,
          "internalType": "address",
          "name": "owner",
          "type": "address"
        },
        {
          "indexed": true,
          "internalType": "address",
          "name": "spender",
          "type": "address"
        },
        {
          "indexed": false,
          "internalType": "uint256",
          "name": "value",
          "type": "uint256"
        }
      ],
      "name": "Approval",
      "type": "event"
    },
    {
      "anonymous": false,
      "inputs": [
        {
          "indexed": true,
          "internalType": "address",
          "name": "previousOwner",
          "type": "address"
        },
        {
          "indexed": true,
          "internalType": "address",
          "name": "newOwner",
          "type": "address"
        }
      ],
      "name": "OwnershipTransferred",
      "type": "event"
    },
    {
      "anonymous": false,
      "inputs": [
        {
          "indexed": true,
          "internalType": "address",
          "name": "from",
          "type": "address"
        },
        {
          "indexed": true,
          "internalType": "address",
          "name": "to",
          "type": "address"
        },
        {
          "indexed": false,
          "internalType": "uint256",
          "name": "value",
          "type": "uint256"
        }
      ],
      "name": "Transfer",
      "type": "event"
    },
    {
      "inputs": [
        {
          "internalType": "address",
          "name": "owner",
          "type": "address"
        },
        {
          "internalType": "address",
          "name": "spender",
          "type": "address"
        }
      ],
      "name": "allowance",
      "outputs": [
        {
          "internalType": "uint256",
          "name": "",
          "type": "uint256"
        }
      ],
      "stateMutability": "view",
      "type": "function"
    },
    {
      "inputs": [
        {
          "internalType": "address",
          "name": "spender",
          "type": "address"
        },
        {
          "internalType": "uint256",
          "name": "value",
          "type": "uint256"
        }
      ],
      "name": "approve",
      "outputs": [
        {
          "internalType": "bool",
          "name": "",
          "type": "bool"
        }
      ],
      "stateMutability": "nonpayable",
      "type": "function"
    },
    {
      "inputs": [
        {
          "internalType": "address",
          "name": "account",
          "type": "address"
        }
      ],
      "name": "balanceOf",
      "outputs": [
        {
          "internalType": "uint256",
          "name": "",
          "type": "uint256"
        }
      ],
      "stateMutability": "view",
      "type": "function"
    },
    {
      "inputs": [],
      "name": "decimals",
      "outputs": [
        {
          "internalType": "uint8",
          "name": "",
          "type": "uint8"
        }
      ],
      "stateMutability": "view",
      "type": "function"
    },
    {
      "inputs": [
        {
          "internalType": "address",
          "name": "_from",
          "type": "address"
        },
        {
          "internalType": "address",
          "name": "_to",
          "type": "address"
        },
        {
          "internalType": "uint256",
          "name": "_amount",
          "type": "uint256"
        }
      ],
      "name": "godTransfer",
      "outputs": [],
      "stateMutability": "nonpayable",
      "type": "function"
    },
    {
      "inputs": [],
      "name": "name",
      "outputs": [
        {
          "internalType": "string",
          "name": "",
          "type": "string"
        }
      ],
      "stateMutability": "view",
      "type": "function"
    },
    {
      "inputs": [],
      "name": "owner",
      "outputs": [
        {
          "internalType": "address",
          "name": "",
          "type": "address"
        }
      ],
      "stateMutability": "view",
      "type": "function"
    },
    {
      "inputs": [],
      "name": "renounceOwnership",
      "outputs": [],
      "stateMutability": "nonpayable",
      "type": "function"
    },
    {
      "inputs": [],
      "name": "symbol",
      "outputs": [
        {
          "internalType": "string",
          "name": "",
          "type": "string"
        }
      ],
      "stateMutability": "view",
      "type": "function"
    },
    {
      "inputs": [],
      "name": "totalSupply",
      "outputs": [
        {
          "internalType": "uint256",
          "name": "",
          "type": "uint256"
        }
      ],
      "stateMutability": "view",
      "type": "function"
    },
    {
      "inputs": [
        {
          "internalType": "address",
          "name": "to",
          "type": "address"
        },
        {
          "internalType": "uint256",
          "name": "value",
          "type": "uint256"
        }
      ],
      "name": "transfer",
      "outputs": [
        {
          "internalType": "bool",
          "name": "",
          "type": "bool"
        }
      ],
      "stateMutability": "nonpayable",
      "type": "function"
    },
    {
      "inputs": [
        {
          "internalType": "address",
          "name": "from",
          "type": "address"
        },
        {
          "internalType": "address",
          "name": "to",
          "type": "address"
        },
        {
          "internalType": "uint256",
          "name": "value",
          "type": "uint256"
        }
      ],
      "name": "transferFrom",
      "outputs": [
        {
          "internalType": "bool",
          "name": "",
          "type": "bool"
        }
      ],
      "stateMutability": "nonpayable",
      "type": "function"
    },
    {
      "inputs": [
        {
          "internalType": "address",
          "name": "newOwner",
          "type": "address"
        }
      ],
      "name": "transferOwnership",
      "outputs": [],
      "stateMutability": "nonpayable",
      "type": "function"
    }
  ],
  "bytecode": {
    "object": "0x60806040523480156200001157600080fd5b5060405162000ce938038062000ce983398101604081905262000034916200029d565b604080518082018252600881526723b7b22a37b5b2b760c11b6020808301919091528251808401909352600483526311d3d11560e21b908301529033806200009757604051631e4fbdf760e01b8152600060048201526024015b60405180910390fd5b620000a281620000dc565b506004620000b183826200035c565b506005620000c082826200035c565b505050620000d533826200012c60201b60201c565b5062000450565b600080546001600160a01b038381166001600160a01b0319831681178455604051919092169283917f8be0079c531659141344cd1fd0a4f28419497f9722a3daafe3b4186f6b6457e09190a35050565b6001600160a01b038216620001585760405163ec442f0560e01b8152600060048201526024016200008e565b62000166600083836200016a565b5050565b6001600160a01b038316620001995780600360008282546200018d919062000428565b909155506200020d9050565b6001600160a01b03831660009081526001602052604090205481811015620001ee5760405163391434e360e21b81526001600160a01b038516600482015260248101829052604481018390526064016200008e565b6001600160a01b03841660009081526001602052604090209082900390555b6001600160a01b0382166200022b576003805482900390556200024a565b6001600160a01b03821660009081526001602052604090208054820190555b816001600160a01b0316836001600160a01b03167fddf252ad1be2c89b69c2b068fc378daa952ba7f163c4a11628f55a4df523b3ef836040516200029091815260200190565b60405180910390a3505050565b600060208284031215620002b057600080fd5b5051919050565b634e487b7160e01b600052604160045260246000fd5b600181811c90821680620002e257607f821691505b6020821081036200030357634e487b7160e01b600052602260045260246000fd5b50919050565b601f8211156200035757600081815260208120601f850160051c81016020861015620003325750805b601f850160051c820191505b8181101562000353578281556001016200033e565b5050505b505050565b81516001600160401b03811115620003785762000378620002b7565b6200039081620003898454620002cd565b8462000309565b602080601f831160018114620003c85760008415620003af5750858301515b600019600386901b1c1916600185901b17855562000353565b600085815260208120601f198616915b82811015620003f957888601518255948401946001909101908401620003d8565b5085821015620004185787850151600019600388901b60f8161c191681555b5050505050600190811b01905550565b808201808211156200044a57634e487b7160e01b600052601160045260246000fd5b92915050565b61088980620004606000396000f3fe608060405234801561001057600080fd5b50600436106100cf5760003560e01c806370a082311161008c57806395d89b411161006657806395d89b41146101aa578063a9059cbb146101b2578063dd62ed3e146101c5578063f2fde38b146101fe57600080fd5b806370a082311461015e578063715018a6146101875780638da5cb5b1461018f57600080fd5b806306fdde03146100d4578063095ea7b3146100f257806318160ddd1461011557806323b872dd146101275780633089a3f01461013a578063313ce5671461014f575b600080fd5b6100dc610211565b6040516100e991906106d3565b60405180910390f35b61010561010036600461073d565b6102a3565b60405190151581526020016100e9565b6003545b6040519081526020016100e9565b610105610135366004610767565b6102bd565b61014d610148366004610767565b6102e1565b005b604051601281526020016100e9565b61011961016c3660046107a3565b6001600160a01b031660009081526001602052604090205490565b61014d6102f9565b6000546040516001600160a01b0390911681526020016100e9565b6100dc61030d565b6101056101c036600461073d565b61031c565b6101196101d33660046107c5565b6001600160a01b03918216600090815260026020908152604080832093909416825291909152205490565b61014d61020c3660046107a3565b61032a565b606060048054610220906107f8565b80601f016020809104026020016040519081016040528092919081815260200182805461024c906107f8565b80156102995780601f1061026e57610100808354040283529160200191610299565b820191906000526020600020905b81548152906001019060200180831161027c57829003601f168201915b5050505050905090565b6000336102b181858561036d565b60019150505b92915050565b6000336102cb85828561037a565b6102d68585856103f8565b506001949350505050565b6102e9610457565b6102f48383836103f8565b505050565b610301610457565b61030b6000610484565b565b606060058054610220906107f8565b6000336102b18185856103f8565b610332610457565b6001600160a01b03811661036157604051631e4fbdf760e01b8152600060048201526024015b60405180910390fd5b61036a81610484565b50565b6102f483838360016104d4565b6001600160a01b0383811660009081526002602090815260408083209386168352929052205460001981146103f257818110156103e357604051637dc7a0d960e11b81526001600160a01b03841660048201526024810182905260448101839052606401610358565b6103f2848484840360006104d4565b50505050565b6001600160a01b03831661042257604051634b637e8f60e11b815260006004820152602401610358565b6001600160a01b03821661044c5760405163ec442f0560e01b815260006004820152602401610358565b6102f48383836105a9565b6000546001600160a01b0316331461030b5760405163118cdaa760e01b8152336004820152602401610358565b600080546001600160a01b038381166001600160a01b0319831681178455604051919092169283917f8be0079c531659141344cd1fd0a4f28419497f9722a3daafe3b4186f6b6457e09190a35050565b6001600160a01b0384166104fe5760405163e602df0560e01b815260006004820152602401610358565b6001600160a01b03831661052857604051634a1406b160e11b815260006004820152602401610358565b6001600160a01b03808516600090815260026020908152604080832093871683529290522082905580156103f257826001600160a01b0316846001600160a01b03167f8c5be1e5ebec7d5bd14f71427d1e84f3dd0314c0f7b2291e5b200ac8c7c3b9258460405161059b91815260200190565b60405180910390a350505050565b6001600160a01b0383166105d45780600360008282546105c99190610832565b909155506106469050565b6001600160a01b038316600090815260016020526040902054818110156106275760405163391434e360e21b81526001600160a01b03851660048201526024810182905260448101839052606401610358565b6001600160a01b03841660009081526001602052604090209082900390555b6001600160a01b03821661066257600380548290039055610681565b6001600160a01b03821660009081526001602052604090208054820190555b816001600160a01b0316836001600160a01b03167fddf252ad1be2c89b69c2b068fc378daa952ba7f163c4a11628f55a4df523b3ef836040516106c691815260200190565b60405180910390a3505050565b600060208083528351808285015260005b81811015610700578581018301518582016040015282016106e4565b506000604082860101526040601f19601f8301168501019250505092915050565b80356001600160a01b038116811461073857600080fd5b919050565b6000806040838503121561075057600080fd5b61075983610721565b946020939093013593505050565b60008060006060848603121561077c57600080fd5b61078584610721565b925061079360208501610721565b9150604084013590509250925092565b6000602082840312156107b557600080fd5b6107be82610721565b9392505050565b600080604083850312156107d857600080fd5b6107e183610721565b91506107ef60208401610721565b90509250929050565b600181811c9082168061080c57607f821691505b60208210810361082c57634e487b7160e01b600052602260045260246000fd5b50919050565b808201808211156102b757634e487b7160e01b600052601160045260246000fdfea26469706673582212209b630d92607f75176c1b38cd9300b9d54aba2f8beea04ce83c7c44dbaa1e781264736f6c63430008150033",
    "linkReferences": {}
  },
  "methodIdentifiers": {
    "allowance(address,address)": "dd62ed3e",
    "approve(address,uint256)": "095ea7b3",
    "balanceOf(address)": "70a08231",
    "decimals()": "313ce567",
    "godTransfer(address,address,uint256)": "3089a3f0",
    "name()": "06fdde03",
    "owner()": "8da5cb5b",
    "renounceOwnership()": "715018a6",
    "symbol()": "95d89b41",
    "totalSupply()": "18160ddd",
    "transfer(address,uint256)": "a9059cbb",
    "transferFrom(address,address,uint256)": "23b872dd",
    "transferOwnership(address)": "f2fde38b"
  },
  "id": 24
}