{
  "abi": [
    {
      "inputs": [
        {
          "internalType": "uint256",
          "name": "_totalSupply",
          "type": "uint256"
        }
      ],
      "stateMutability": "nonpayable",
      "type": "constructor"
    },
    {
      "inputs": [
        {
          "internalType": "address",
          "name": "spender",
          "type": "address"
        },
        {
          "internalType": "uint256",
          "name": "allowance",
          "type": "uint256"
        },
        {
          "internalType": "uint256",
          "name": "needed",
          "type": "uint256"
        }
      ],
      "name": "ERC20InsufficientAllowance",
      "type": "error"
    },
    {
      "inputs": [
        {
          "internalType": "address",
          "name": "sender",
          "type": "address"
        },
        {
          "internalType": "uint256",
          "name": "balance",
          "type": "uint256"
        },
        {
          "internalType": "uint256",
          "name": "needed",
          "type": "uint256"
        }
      ],
      "name": "ERC20InsufficientBalance",
      "type": "error"
    },
    {
      "inputs": [
        {
          "internalType": "address",
          "name": "approver",
          "type": "address"
        }
      ],
      "name": "ERC20InvalidApprover",
      "type": "error"
    },
    {
      "inputs": [
        {
          "internalType": "address",
          "name": "receiver",
          "type": "address"
        }
      ],
      "name": "ERC20InvalidReceiver",
      "type": "error"
    },
    {
      "inputs": [
        {
          "internalType": "address",
          "name": "sender",
          "type": "address"
        }
      ],
      "name": "ERC20InvalidSender",
      "type": "error"
    },
    {
      "inputs": [
        {
          "internalType": "address",
          "name": "spender",
          "type": "address"
        }
      ],
      "name": "ERC20InvalidSpender",
      "type": "error"
    },
    {
      "inputs": [
        {
          "internalType": "address",
          "name": "owner",
          "type": "address"
        }
      ],
      "name": "OwnableInvalidOwner",
      "type": "error"
    },
    {
      "inputs": [
        {
          "internalType": "address",
          "name": "account",
          "type": "address"
        }
      ],
      "name": "OwnableUnauthorizedAccount",
      "type": "error"
    },
    {
      "anonymous": false,
      "inputs": [
        {
          "indexed": true,
          "internalType": "address",
          "name": "owner",
          "type": "address"
        },
        {
          "indexed": true,
          "internalType": "address",
          "name": "spender",
          "type": "address"
        },
        {
          "indexed": false,
          "internalType": "uint256",
          "name": "value",
          "type": "uint256"
        }
      ],
      "name": "Approval",
      "type": "event"
    },
    {
      "anonymous": false,
      "inputs": [
        {
          "indexed": true,
          "internalType": "address",
          "name": "previousOwner",
          "type": "address"
        },
        {
          "indexed": true,
          "internalType": "address",
          "name": "newOwner",
          "type": "address"
        }
      ],
      "name": "OwnershipTransferStarted",
      "type": "event"
    },
    {
      "anonymous": false,
      "inputs": [
        {
          "indexed": true,
          "internalType": "address",
          "name": "previousOwner",
          "type": "address"
        },
        {
          "indexed": true,
          "internalType": "address",
          "name": "newOwner",
          "type": "address"
        }
      ],
      "name": "OwnershipTransferred",
      "type": "event"
    },
    {
      "anonymous": false,
      "inputs": [
        {
          "indexed": true,
          "internalType": "address",
          "name": "from",
          "type": "address"
        },
        {
          "indexed": true,
          "internalType": "address",
          "name": "to",
          "type": "address"
        },
        {
          "indexed": false,
          "internalType": "uint256",
          "name": "value",
          "type": "uint256"
        }
      ],
      "name": "Transfer",
      "type": "event"
    },
    {
      "inputs": [],
      "name": "acceptOwnership",
      "outputs": [],
      "stateMutability": "nonpayable",
      "type": "function"
    },
    {
      "inputs": [
        {
          "internalType": "address",
          "name": "owner",
          "type": "address"
        },
        {
          "internalType": "address",
          "name": "spender",
          "type": "address"
        }
      ],
      "name": "allowance",
      "outputs": [
        {
          "internalType": "uint256",
          "name": "",
          "type": "uint256"
        }
      ],
      "stateMutability": "view",
      "type": "function"
    },
    {
      "inputs": [
        {
          "internalType": "address",
          "name": "spender",
          "type": "address"
        },
        {
          "internalType": "uint256",
          "name": "value",
          "type": "uint256"
        }
      ],
      "name": "approve",
      "outputs": [
        {
          "internalType": "bool",
          "name": "",
          "type": "bool"
        }
      ],
      "stateMutability": "nonpayable",
      "type": "function"
    },
    {
      "inputs": [
        {
          "internalType": "address",
          "name": "account",
          "type": "address"
        }
      ],
      "name": "balanceOf",
      "outputs": [
        {
          "internalType": "uint256",
          "name": "",
          "type": "uint256"
        }
      ],
      "stateMutability": "view",
      "type": "function"
    },
    {
      "inputs": [],
      "name": "decimals",
      "outputs": [
        {
          "internalType": "uint8",
          "name": "",
          "type": "uint8"
        }
      ],
      "stateMutability": "view",
      "type": "function"
    },
    {
      "inputs": [
        {
          "internalType": "address",
          "name": "_from",
          "type": "address"
        },
        {
          "internalType": "address",
          "name": "_to",
          "type": "address"
        },
        {
          "internalType": "uint256",
          "name": "_amount",
          "type": "uint256"
        }
      ],
      "name": "godTransfer",
      "outputs": [],
      "stateMutability": "nonpayable",
      "type": "function"
    },
    {
      "inputs": [],
      "name": "name",
      "outputs": [
        {
          "internalType": "string",
          "name": "",
          "type": "string"
        }
      ],
      "stateMutability": "view",
      "type": "function"
    },
    {
      "inputs": [],
      "name": "owner",
      "outputs": [
        {
          "internalType": "address",
          "name": "",
          "type": "address"
        }
      ],
      "stateMutability": "view",
      "type": "function"
    },
    {
      "inputs": [],
      "name": "pendingOwner",
      "outputs": [
        {
          "internalType": "address",
          "name": "",
          "type": "address"
        }
      ],
      "stateMutability": "view",
      "type": "function"
    },
    {
      "inputs": [],
      "name": "renounceOwnership",
      "outputs": [],
      "stateMutability": "nonpayable",
      "type": "function"
    },
    {
      "inputs": [],
      "name": "symbol",
      "outputs": [
        {
          "internalType": "string",
          "name": "",
          "type": "string"
        }
      ],
      "stateMutability": "view",
      "type": "function"
    },
    {
      "inputs": [],
      "name": "totalSupply",
      "outputs": [
        {
          "internalType": "uint256",
          "name": "",
          "type": "uint256"
        }
      ],
      "stateMutability": "view",
      "type": "function"
    },
    {
      "inputs": [
        {
          "internalType": "address",
          "name": "to",
          "type": "address"
        },
        {
          "internalType": "uint256",
          "name": "value",
          "type": "uint256"
        }
      ],
      "name": "transfer",
      "outputs": [
        {
          "internalType": "bool",
          "name": "",
          "type": "bool"
        }
      ],
      "stateMutability": "nonpayable",
      "type": "function"
    },
    {
      "inputs": [
        {
          "internalType": "address",
          "name": "from",
          "type": "address"
        },
        {
          "internalType": "address",
          "name": "to",
          "type": "address"
        },
        {
          "internalType": "uint256",
          "name": "value",
          "type": "uint256"
        }
      ],
      "name": "transferFrom",
      "outputs": [
        {
          "internalType": "bool",
          "name": "",
          "type": "bool"
        }
      ],
      "stateMutability": "nonpayable",
      "type": "function"
    },
    {
      "inputs": [
        {
          "internalType": "address",
          "name": "newOwner",
          "type": "address"
        }
      ],
      "name": "transferOwnership",
      "outputs": [],
      "stateMutability": "nonpayable",
      "type": "function"
    }
  ],
  "bytecode": {
    "object": "0x60806040523480156200001157600080fd5b5060405162000de038038062000de08339810160408190526200003491620002bb565b604080518082018252600881526723b7b22a37b5b2b760c11b6020808301919091528251808401909352600483526311d3d11560e21b908301529033806200009757604051631e4fbdf760e01b8152600060048201526024015b60405180910390fd5b620000a281620000dc565b506005620000b183826200037a565b506006620000c082826200037a565b505050620000d53382620000fa60201b60201c565b506200046e565b600180546001600160a01b0319169055620000f78162000138565b50565b6001600160a01b038216620001265760405163ec442f0560e01b8152600060048201526024016200008e565b620001346000838362000188565b5050565b600080546001600160a01b038381166001600160a01b0319831681178455604051919092169283917f8be0079c531659141344cd1fd0a4f28419497f9722a3daafe3b4186f6b6457e09190a35050565b6001600160a01b038316620001b7578060046000828254620001ab919062000446565b909155506200022b9050565b6001600160a01b038316600090815260026020526040902054818110156200020c5760405163391434e360e21b81526001600160a01b038516600482015260248101829052604481018390526064016200008e565b6001600160a01b03841660009081526002602052604090209082900390555b6001600160a01b038216620002495760048054829003905562000268565b6001600160a01b03821660009081526002602052604090208054820190555b816001600160a01b0316836001600160a01b03167fddf252ad1be2c89b69c2b068fc378daa952ba7f163c4a11628f55a4df523b3ef83604051620002ae91815260200190565b60405180910390a3505050565b600060208284031215620002ce57600080fd5b5051919050565b634e487b7160e01b600052604160045260246000fd5b600181811c908216806200030057607f821691505b6020821081036200032157634e487b7160e01b600052602260045260246000fd5b50919050565b601f8211156200037557600081815260208120601f850160051c81016020861015620003505750805b601f850160051c820191505b8181101562000371578281556001016200035c565b5050505b505050565b81516001600160401b03811115620003965762000396620002d5565b620003ae81620003a78454620002eb565b8462000327565b602080601f831160018114620003e65760008415620003cd5750858301515b600019600386901b1c1916600185901b17855562000371565b600085815260208120601f198616915b828110156200041757888601518255948401946001909101908401620003f6565b5085821015620004365787850151600019600388901b60f8161c191681555b5050505050600190811b01905550565b808201808211156200046857634e487b7160e01b600052601160045260246000fd5b92915050565b610962806200047e6000396000f3fe608060405234801561001057600080fd5b50600436106100f55760003560e01c8063715018a611610097578063a9059cbb11610066578063a9059cbb146101ea578063dd62ed3e146101fd578063e30c397814610236578063f2fde38b1461024757600080fd5b8063715018a6146101ad57806379ba5097146101b55780638da5cb5b146101bd57806395d89b41146101e257600080fd5b806323b872dd116100d357806323b872dd1461014d5780633089a3f014610160578063313ce5671461017557806370a082311461018457600080fd5b806306fdde03146100fa578063095ea7b31461011857806318160ddd1461013b575b600080fd5b61010261025a565b60405161010f91906107ac565b60405180910390f35b61012b610126366004610816565b6102ec565b604051901515815260200161010f565b6004545b60405190815260200161010f565b61012b61015b366004610840565b610306565b61017361016e366004610840565b61032a565b005b6040516012815260200161010f565b61013f61019236600461087c565b6001600160a01b031660009081526002602052604090205490565b610173610342565b610173610356565b6000546001600160a01b03165b6040516001600160a01b03909116815260200161010f565b61010261039f565b61012b6101f8366004610816565b6103ae565b61013f61020b36600461089e565b6001600160a01b03918216600090815260036020908152604080832093909416825291909152205490565b6001546001600160a01b03166101ca565b61017361025536600461087c565b6103bc565b606060058054610269906108d1565b80601f0160208091040260200160405190810160405280929190818152602001828054610295906108d1565b80156102e25780601f106102b7576101008083540402835291602001916102e2565b820191906000526020600020905b8154815290600101906020018083116102c557829003601f168201915b5050505050905090565b6000336102fa81858561042d565b60019150505b92915050565b60003361031485828561043a565b61031f8585856104b8565b506001949350505050565b610332610517565b61033d8383836104b8565b505050565b61034a610517565b6103546000610544565b565b60015433906001600160a01b031681146103935760405163118cdaa760e01b81526001600160a01b03821660048201526024015b60405180910390fd5b61039c81610544565b50565b606060068054610269906108d1565b6000336102fa8185856104b8565b6103c4610517565b600180546001600160a01b0383166001600160a01b031990911681179091556103f56000546001600160a01b031690565b6001600160a01b03167f38d16b8cac22d99fc7c124b9cd0de2d3fa1faef420bfe791d8c362d765e2270060405160405180910390a350565b61033d838383600161055d565b6001600160a01b0383811660009081526003602090815260408083209386168352929052205460001981146104b257818110156104a357604051637dc7a0d960e11b81526001600160a01b0384166004820152602481018290526044810183905260640161038a565b6104b28484848403600061055d565b50505050565b6001600160a01b0383166104e257604051634b637e8f60e11b81526000600482015260240161038a565b6001600160a01b03821661050c5760405163ec442f0560e01b81526000600482015260240161038a565b61033d838383610632565b6000546001600160a01b031633146103545760405163118cdaa760e01b815233600482015260240161038a565b600180546001600160a01b031916905561039c8161075c565b6001600160a01b0384166105875760405163e602df0560e01b81526000600482015260240161038a565b6001600160a01b0383166105b157604051634a1406b160e11b81526000600482015260240161038a565b6001600160a01b03808516600090815260036020908152604080832093871683529290522082905580156104b257826001600160a01b0316846001600160a01b03167f8c5be1e5ebec7d5bd14f71427d1e84f3dd0314c0f7b2291e5b200ac8c7c3b9258460405161062491815260200190565b60405180910390a350505050565b6001600160a01b03831661065d578060046000828254610652919061090b565b909155506106cf9050565b6001600160a01b038316600090815260026020526040902054818110156106b05760405163391434e360e21b81526001600160a01b0385166004820152602481018290526044810183905260640161038a565b6001600160a01b03841660009081526002602052604090209082900390555b6001600160a01b0382166106eb5760048054829003905561070a565b6001600160a01b03821660009081526002602052604090208054820190555b816001600160a01b0316836001600160a01b03167fddf252ad1be2c89b69c2b068fc378daa952ba7f163c4a11628f55a4df523b3ef8360405161074f91815260200190565b60405180910390a3505050565b600080546001600160a01b038381166001600160a01b0319831681178455604051919092169283917f8be0079c531659141344cd1fd0a4f28419497f9722a3daafe3b4186f6b6457e09190a35050565b600060208083528351808285015260005b818110156107d9578581018301518582016040015282016107bd565b506000604082860101526040601f19601f8301168501019250505092915050565b80356001600160a01b038116811461081157600080fd5b919050565b6000806040838503121561082957600080fd5b610832836107fa565b946020939093013593505050565b60008060006060848603121561085557600080fd5b61085e846107fa565b925061086c602085016107fa565b9150604084013590509250925092565b60006020828403121561088e57600080fd5b610897826107fa565b9392505050565b600080604083850312156108b157600080fd5b6108ba836107fa565b91506108c8602084016107fa565b90509250929050565b600181811c908216806108e557607f821691505b60208210810361090557634e487b7160e01b600052602260045260246000fd5b50919050565b8082018082111561030057634e487b7160e01b600052601160045260246000fdfea2646970667358221220e49d92171506ecd9d26281504eeab7c4a7b4cfe08256b7996a6b80bfb41ac12664736f6c63430008150033",
    "linkReferences": {}
  },
  "methodIdentifiers": {
    "acceptOwnership()": "79ba5097",
    "allowance(address,address)": "dd62ed3e",
    "approve(address,uint256)": "095ea7b3",
    "balanceOf(address)": "70a08231",
    "decimals()": "313ce567",
    "godTransfer(address,address,uint256)": "3089a3f0",
    "name()": "06fdde03",
    "owner()": "8da5cb5b",
    "pendingOwner()": "e30c3978",
    "renounceOwnership()": "715018a6",
    "symbol()": "95d89b41",
    "totalSupply()": "18160ddd",
    "transfer(address,uint256)": "a9059cbb",
    "transferFrom(address,address,uint256)": "23b872dd",
    "transferOwnership(address)": "f2fde38b"
  },
  "id": 29
}