{
  "abi": [
    {
      "inputs": [
        {
          "internalType": "uint256",
          "name": "_initialPrice",
          "type": "uint256"
        },
        {
          "internalType": "uint256",
          "name": "_slope",
          "type": "uint256"
        }
      ],
      "stateMutability": "nonpayable",
      "type": "constructor"
    },
    {
      "inputs": [
        {
          "internalType": "address",
          "name": "spender",
          "type": "address"
        },
        {
          "internalType": "uint256",
          "name": "allowance",
          "type": "uint256"
        },
        {
          "internalType": "uint256",
          "name": "needed",
          "type": "uint256"
        }
      ],
      "name": "ERC20InsufficientAllowance",
      "type": "error"
    },
    {
      "inputs": [
        {
          "internalType": "address",
          "name": "sender",
          "type": "address"
        },
        {
          "internalType": "uint256",
          "name": "balance",
          "type": "uint256"
        },
        {
          "internalType": "uint256",
          "name": "needed",
          "type": "uint256"
        }
      ],
      "name": "ERC20InsufficientBalance",
      "type": "error"
    },
    {
      "inputs": [
        {
          "internalType": "address",
          "name": "approver",
          "type": "address"
        }
      ],
      "name": "ERC20InvalidApprover",
      "type": "error"
    },
    {
      "inputs": [
        {
          "internalType": "address",
          "name": "receiver",
          "type": "address"
        }
      ],
      "name": "ERC20InvalidReceiver",
      "type": "error"
    },
    {
      "inputs": [
        {
          "internalType": "address",
          "name": "sender",
          "type": "address"
        }
      ],
      "name": "ERC20InvalidSender",
      "type": "error"
    },
    {
      "inputs": [
        {
          "internalType": "address",
          "name": "spender",
          "type": "address"
        }
      ],
      "name": "ERC20InvalidSpender",
      "type": "error"
    },
    {
      "inputs": [
        {
          "internalType": "address",
          "name": "owner",
          "type": "address"
        }
      ],
      "name": "OwnableInvalidOwner",
      "type": "error"
    },
    {
      "inputs": [
        {
          "internalType": "address",
          "name": "account",
          "type": "address"
        }
      ],
      "name": "OwnableUnauthorizedAccount",
      "type": "error"
    },
    {
      "anonymous": false,
      "inputs": [
        {
          "indexed": true,
          "internalType": "address",
          "name": "owner",
          "type": "address"
        },
        {
          "indexed": true,
          "internalType": "address",
          "name": "spender",
          "type": "address"
        },
        {
          "indexed": false,
          "internalType": "uint256",
          "name": "value",
          "type": "uint256"
        }
      ],
      "name": "Approval",
      "type": "event"
    },
    {
      "anonymous": false,
      "inputs": [
        {
          "indexed": true,
          "internalType": "address",
          "name": "previousOwner",
          "type": "address"
        },
        {
          "indexed": true,
          "internalType": "address",
          "name": "newOwner",
          "type": "address"
        }
      ],
      "name": "OwnershipTransferStarted",
      "type": "event"
    },
    {
      "anonymous": false,
      "inputs": [
        {
          "indexed": true,
          "internalType": "address",
          "name": "previousOwner",
          "type": "address"
        },
        {
          "indexed": true,
          "internalType": "address",
          "name": "newOwner",
          "type": "address"
        }
      ],
      "name": "OwnershipTransferred",
      "type": "event"
    },
    {
      "anonymous": false,
      "inputs": [
        {
          "indexed": true,
          "internalType": "address",
          "name": "buyer",
          "type": "address"
        },
        {
          "indexed": false,
          "internalType": "uint256",
          "name": "amount",
          "type": "uint256"
        },
        {
          "indexed": false,
          "internalType": "uint256",
          "name": "paid",
          "type": "uint256"
        },
        {
          "indexed": false,
          "internalType": "uint256",
          "name": "newSupply",
          "type": "uint256"
        }
      ],
      "name": "TokensPurchased",
      "type": "event"
    },
    {
      "anonymous": false,
      "inputs": [
        {
          "indexed": true,
          "internalType": "address",
          "name": "seller",
          "type": "address"
        },
        {
          "indexed": false,
          "internalType": "uint256",
          "name": "amount",
          "type": "uint256"
        },
        {
          "indexed": false,
          "internalType": "uint256",
          "name": "received",
          "type": "uint256"
        },
        {
          "indexed": false,
          "internalType": "uint256",
          "name": "newSupply",
          "type": "uint256"
        }
      ],
      "name": "TokensSold",
      "type": "event"
    },
    {
      "anonymous": false,
      "inputs": [
        {
          "indexed": true,
          "internalType": "address",
          "name": "from",
          "type": "address"
        },
        {
          "indexed": true,
          "internalType": "address",
          "name": "to",
          "type": "address"
        },
        {
          "indexed": false,
          "internalType": "uint256",
          "name": "value",
          "type": "uint256"
        }
      ],
      "name": "Transfer",
      "type": "event"
    },
    {
      "inputs": [],
      "name": "acceptOwnership",
      "outputs": [],
      "stateMutability": "nonpayable",
      "type": "function"
    },
    {
      "inputs": [
        {
          "internalType": "address",
          "name": "owner",
          "type": "address"
        },
        {
          "internalType": "address",
          "name": "spender",
          "type": "address"
        }
      ],
      "name": "allowance",
      "outputs": [
        {
          "internalType": "uint256",
          "name": "",
          "type": "uint256"
        }
      ],
      "stateMutability": "view",
      "type": "function"
    },
    {
      "inputs": [
        {
          "internalType": "address",
          "name": "spender",
          "type": "address"
        },
        {
          "internalType": "uint256",
          "name": "value",
          "type": "uint256"
        }
      ],
      "name": "approve",
      "outputs": [
        {
          "internalType": "bool",
          "name": "",
          "type": "bool"
        }
      ],
      "stateMutability": "nonpayable",
      "type": "function"
    },
    {
      "inputs": [
        {
          "internalType": "address",
          "name": "account",
          "type": "address"
        }
      ],
      "name": "balanceOf",
      "outputs": [
        {
          "internalType": "uint256",
          "name": "",
          "type": "uint256"
        }
      ],
      "stateMutability": "view",
      "type": "function"
    },
    {
      "inputs": [
        {
          "internalType": "uint256",
          "name": "_tokensToBuy",
          "type": "uint256"
        }
      ],
      "name": "calculatePurchasePrice",
      "outputs": [
        {
          "internalType": "uint256",
          "name": "",
          "type": "uint256"
        }
      ],
      "stateMutability": "view",
      "type": "function"
    },
    {
      "inputs": [
        {
          "internalType": "uint256",
          "name": "_tokensToSell",
          "type": "uint256"
        }
      ],
      "name": "calculateSalePrice",
      "outputs": [
        {
          "internalType": "uint256",
          "name": "",
          "type": "uint256"
        }
      ],
      "stateMutability": "view",
      "type": "function"
    },
    {
      "inputs": [],
      "name": "decimals",
      "outputs": [
        {
          "internalType": "uint8",
          "name": "",
          "type": "uint8"
        }
      ],
      "stateMutability": "view",
      "type": "function"
    },
    {
      "inputs": [],
      "name": "initialPrice",
      "outputs": [
        {
          "internalType": "uint256",
          "name": "",
          "type": "uint256"
        }
      ],
      "stateMutability": "view",
      "type": "function"
    },
    {
      "inputs": [],
      "name": "maxGasPrice",
      "outputs": [
        {
          "internalType": "uint256",
          "name": "",
          "type": "uint256"
        }
      ],
      "stateMutability": "view",
      "type": "function"
    },
    {
      "inputs": [],
      "name": "name",
      "outputs": [
        {
          "internalType": "string",
          "name": "",
          "type": "string"
        }
      ],
      "stateMutability": "view",
      "type": "function"
    },
    {
      "inputs": [],
      "name": "owner",
      "outputs": [
        {
          "internalType": "address",
          "name": "",
          "type": "address"
        }
      ],
      "stateMutability": "view",
      "type": "function"
    },
    {
      "inputs": [],
      "name": "pendingOwner",
      "outputs": [
        {
          "internalType": "address",
          "name": "",
          "type": "address"
        }
      ],
      "stateMutability": "view",
      "type": "function"
    },
    {
      "inputs": [
        {
          "internalType": "uint256",
          "name": "_tokensToBuy",
          "type": "uint256"
        }
      ],
      "name": "purchaseTokens",
      "outputs": [],
      "stateMutability": "payable",
      "type": "function"
    },
    {
      "inputs": [],
      "name": "renounceOwnership",
      "outputs": [],
      "stateMutability": "nonpayable",
      "type": "function"
    },
    {
      "inputs": [
        {
          "internalType": "uint256",
          "name": "_tokensToSell",
          "type": "uint256"
        }
      ],
      "name": "sellTokens",
      "outputs": [],
      "stateMutability": "nonpayable",
      "type": "function"
    },
    {
      "inputs": [
        {
          "internalType": "uint256",
          "name": "_newPrice",
          "type": "uint256"
        }
      ],
      "name": "setMaxGasPrice",
      "outputs": [],
      "stateMutability": "nonpayable",
      "type": "function"
    },
    {
      "inputs": [],
      "name": "slope",
      "outputs": [
        {
          "internalType": "uint256",
          "name": "",
          "type": "uint256"
        }
      ],
      "stateMutability": "view",
      "type": "function"
    },
    {
      "inputs": [],
      "name": "symbol",
      "outputs": [
        {
          "internalType": "string",
          "name": "",
          "type": "string"
        }
      ],
      "stateMutability": "view",
      "type": "function"
    },
    {
      "inputs": [],
      "name": "totalSupply",
      "outputs": [
        {
          "internalType": "uint256",
          "name": "",
          "type": "uint256"
        }
      ],
      "stateMutability": "view",
      "type": "function"
    },
    {
      "inputs": [
        {
          "internalType": "address",
          "name": "to",
          "type": "address"
        },
        {
          "internalType": "uint256",
          "name": "value",
          "type": "uint256"
        }
      ],
      "name": "transfer",
      "outputs": [
        {
          "internalType": "bool",
          "name": "",
          "type": "bool"
        }
      ],
      "stateMutability": "nonpayable",
      "type": "function"
    },
    {
      "inputs": [
        {
          "internalType": "address",
          "name": "from",
          "type": "address"
        },
        {
          "internalType": "address",
          "name": "to",
          "type": "address"
        },
        {
          "internalType": "uint256",
          "name": "value",
          "type": "uint256"
        }
      ],
      "name": "transferFrom",
      "outputs": [
        {
          "internalType": "bool",
          "name": "",
          "type": "bool"
        }
      ],
      "stateMutability": "nonpayable",
      "type": "function"
    },
    {
      "inputs": [
        {
          "internalType": "address",
          "name": "newOwner",
          "type": "address"
        }
      ],
      "name": "transferOwnership",
      "outputs": [],
      "stateMutability": "nonpayable",
      "type": "function"
    },
    {
      "inputs": [],
      "name": "withdrawFunds",
      "outputs": [],
      "stateMutability": "nonpayable",
      "type": "function"
    }
  ],
  "bytecode": {
    "object": "0x60c060405262019a286007553480156200001857600080fd5b5060405162001396380380620013968339810160408190526200003b9162000153565b3360405180604001604052806004815260200163109bdb9960e21b815250604051806040016040528060048152602001631093d39160e21b81525081600390816200008791906200021d565b5060046200009682826200021d565b5050506001600160a01b038116620000c857604051631e4fbdf760e01b81526000600482015260240160405180910390fd5b620000d381620000e3565b5060809190915260a052620002e9565b600680546001600160a01b0319169055620000fe8162000101565b50565b600580546001600160a01b038381166001600160a01b0319831681179093556040519116919082907f8be0079c531659141344cd1fd0a4f28419497f9722a3daafe3b4186f6b6457e090600090a35050565b600080604083850312156200016757600080fd5b505080516020909101519092909150565b634e487b7160e01b600052604160045260246000fd5b600181811c90821680620001a357607f821691505b602082108103620001c457634e487b7160e01b600052602260045260246000fd5b50919050565b601f8211156200021857600081815260208120601f850160051c81016020861015620001f35750805b601f850160051c820191505b818110156200021457828155600101620001ff565b5050505b505050565b81516001600160401b0381111562000239576200023962000178565b62000251816200024a84546200018e565b84620001ca565b602080601f831160018114620002895760008415620002705750858301515b600019600386901b1c1916600185901b17855562000214565b600085815260208120601f198616915b82811015620002ba5788860151825594840194600190910190840162000299565b5085821015620002d95787850151600019600388901b60f8161c191681555b5050505050600190811b01905550565b60805160a0516110796200031d600039600081816103450152610a050152600081816101f50152610a2e01526110796000f3fe6080604052600436106101405760003560e01c8063715018a6116100b657806395d89b411161006f57806395d89b4114610399578063a9059cbb146103ae578063d2fa635e146103ce578063dd62ed3e146103ee578063e30c397814610434578063f2fde38b1461045257600080fd5b8063715018a6146102d657806379ba5097146102eb5780637b97008d146103005780637d57b5601461031357806383caf275146103335780638da5cb5b1461036757600080fd5b806323b872dd1161010857806323b872dd1461021757806324600fc314610237578063313ce5671461024e5780633de39c111461026a5780636c11bcd31461028057806370a08231146102a057600080fd5b806306fdde0314610145578063095ea7b314610170578063145f1019146101a057806318160ddd146101ce5780631d0806ae146101e3575b600080fd5b34801561015157600080fd5b5061015a610472565b6040516101679190610e5d565b60405180910390f35b34801561017c57600080fd5b5061019061018b366004610ec7565b610504565b6040519015158152602001610167565b3480156101ac57600080fd5b506101c06101bb366004610ef1565b61051e565b604051908152602001610167565b3480156101da57600080fd5b506002546101c0565b3480156101ef57600080fd5b506101c07f000000000000000000000000000000000000000000000000000000000000000081565b34801561022357600080fd5b50610190610232366004610f0a565b610550565b34801561024357600080fd5b5061024c610574565b005b34801561025a57600080fd5b5060405160128152602001610167565b34801561027657600080fd5b506101c060075481565b34801561028c57600080fd5b5061024c61029b366004610ef1565b61062a565b3480156102ac57600080fd5b506101c06102bb366004610f46565b6001600160a01b031660009081526020819052604090205490565b3480156102e257600080fd5b5061024c610762565b3480156102f757600080fd5b5061024c610776565b61024c61030e366004610ef1565b6107b7565b34801561031f57600080fd5b506101c061032e366004610ef1565b6108f2565b34801561033f57600080fd5b506101c07f000000000000000000000000000000000000000000000000000000000000000081565b34801561037357600080fd5b506005546001600160a01b03165b6040516001600160a01b039091168152602001610167565b3480156103a557600080fd5b5061015a61091d565b3480156103ba57600080fd5b506101906103c9366004610ec7565b61092c565b3480156103da57600080fd5b5061024c6103e9366004610ef1565b61093a565b3480156103fa57600080fd5b506101c0610409366004610f61565b6001600160a01b03918216600090815260016020908152604080832093909416825291909152205490565b34801561044057600080fd5b506006546001600160a01b0316610381565b34801561045e57600080fd5b5061024c61046d366004610f46565b610947565b60606003805461048190610f94565b80601f01602080910402602001604051908101604052809291908181526020018280546104ad90610f94565b80156104fa5780601f106104cf576101008083540402835291602001916104fa565b820191906000526020600020905b8154815290600101906020018083116104dd57829003601f168201915b5050505050905090565b6000336105128185856109b8565b60019150505b92915050565b6000808261052b60025490565b6105359190610fe4565b905061054961054360025490565b826109ca565b9392505050565b60003361055e858285610a79565b610569858585610af7565b506001949350505050565b61057c610b56565b60006105906005546001600160a01b031690565b6001600160a01b03164760405160006040518083038185875af1925050503d80600081146105da576040519150601f19603f3d011682016040523d82523d6000602084013e6105df565b606091505b50509050806106275760405162461bcd60e51b815260206004820152600f60248201526e151c985b9cd9995c8819985a5b1959608a1b60448201526064015b60405180910390fd5b50565b600081116106715760405162461bcd60e51b8152602060048201526014602482015273125b9d985b1a59081d1bdad95b88185b5bdd5b9d60621b604482015260640161061e565b600061067c826108f2565b90506106883383610b83565b604051600090339083908381818185875af1925050503d80600081146106ca576040519150601f19603f3d011682016040523d82523d6000602084013e6106cf565b606091505b50509050806107125760405162461bcd60e51b815260206004820152600f60248201526e151c985b9cd9995c8819985a5b1959608a1b604482015260640161061e565b337f6db63bebf1e6540277744df32846ebdb98385b1a73f2d5de49b28348add63f50848461073f60025490565b6040805193845260208401929092529082015260600160405180910390a2505050565b61076a610b56565b6107746000610bbd565b565b60065433906001600160a01b031681146107ae5760405163118cdaa760e01b81526001600160a01b038216600482015260240161061e565b61062781610bbd565b6007543a11156107fe5760405162461bcd60e51b815260206004820152601260248201527111d85cc81c1c9a58d948195e18d95959195960721b604482015260640161061e565b600081116108455760405162461bcd60e51b8152602060048201526014602482015273125b9d985b1a59081d1bdad95b88185b5bdd5b9d60621b604482015260640161061e565b60006108508261051e565b9050803410156108995760405162461bcd60e51b8152602060048201526014602482015273125b9cdd59999a58da595b9d081c185e5b595b9d60621b604482015260640161061e565b6108a33383610bd6565b337f0d1a0d5e3d583a0e92588799dd06e50fd78c07daf05f0cc06d7b848b1ca445f183836108d060025490565b6040805193845260208401929092529082015260600160405180910390a25050565b600080826108ff60025490565b6109099190610ff7565b90506105498161091860025490565b6109ca565b60606004805461048190610f94565b600033610512818585610af7565b610942610b56565b600755565b61094f610b56565b600680546001600160a01b0383166001600160a01b031990911681179091556109806005546001600160a01b031690565b6001600160a01b03167f38d16b8cac22d99fc7c124b9cd0de2d3fa1faef420bfe791d8c362d765e2270060405160405180910390a350565b6109c58383836001610c0c565b505050565b60008183036109db57506000610518565b600060026109e98585610ff7565b60016109f58688610fe4565b6109ff9190610ff7565b610a29907f000000000000000000000000000000000000000000000000000000000000000061100a565b610a537f000000000000000000000000000000000000000000000000000000000000000080610fe4565b610a5d9190610fe4565b610a67919061100a565b610a719190611021565b949350505050565b6001600160a01b038381166000908152600160209081526040808320938616835292905220546000198114610af15781811015610ae257604051637dc7a0d960e11b81526001600160a01b0384166004820152602481018290526044810183905260640161061e565b610af184848484036000610c0c565b50505050565b6001600160a01b038316610b2157604051634b637e8f60e11b81526000600482015260240161061e565b6001600160a01b038216610b4b5760405163ec442f0560e01b81526000600482015260240161061e565b6109c5838383610ce1565b6005546001600160a01b031633146107745760405163118cdaa760e01b815233600482015260240161061e565b6001600160a01b038216610bad57604051634b637e8f60e11b81526000600482015260240161061e565b610bb982600083610ce1565b5050565b600680546001600160a01b031916905561062781610e0b565b6001600160a01b038216610c005760405163ec442f0560e01b81526000600482015260240161061e565b610bb960008383610ce1565b6001600160a01b038416610c365760405163e602df0560e01b81526000600482015260240161061e565b6001600160a01b038316610c6057604051634a1406b160e11b81526000600482015260240161061e565b6001600160a01b0380851660009081526001602090815260408083209387168352929052208290558015610af157826001600160a01b0316846001600160a01b03167f8c5be1e5ebec7d5bd14f71427d1e84f3dd0314c0f7b2291e5b200ac8c7c3b92584604051610cd391815260200190565b60405180910390a350505050565b6001600160a01b038316610d0c578060026000828254610d019190610fe4565b90915550610d7e9050565b6001600160a01b03831660009081526020819052604090205481811015610d5f5760405163391434e360e21b81526001600160a01b0385166004820152602481018290526044810183905260640161061e565b6001600160a01b03841660009081526020819052604090209082900390555b6001600160a01b038216610d9a57600280548290039055610db9565b6001600160a01b03821660009081526020819052604090208054820190555b816001600160a01b0316836001600160a01b03167fddf252ad1be2c89b69c2b068fc378daa952ba7f163c4a11628f55a4df523b3ef83604051610dfe91815260200190565b60405180910390a3505050565b600580546001600160a01b038381166001600160a01b0319831681179093556040519116919082907f8be0079c531659141344cd1fd0a4f28419497f9722a3daafe3b4186f6b6457e090600090a35050565b600060208083528351808285015260005b81811015610e8a57858101830151858201604001528201610e6e565b506000604082860101526040601f19601f8301168501019250505092915050565b80356001600160a01b0381168114610ec257600080fd5b919050565b60008060408385031215610eda57600080fd5b610ee383610eab565b946020939093013593505050565b600060208284031215610f0357600080fd5b5035919050565b600080600060608486031215610f1f57600080fd5b610f2884610eab565b9250610f3660208501610eab565b9150604084013590509250925092565b600060208284031215610f5857600080fd5b61054982610eab565b60008060408385031215610f7457600080fd5b610f7d83610eab565b9150610f8b60208401610eab565b90509250929050565b600181811c90821680610fa857607f821691505b602082108103610fc857634e487b7160e01b600052602260045260246000fd5b50919050565b634e487b7160e01b600052601160045260246000fd5b8082018082111561051857610518610fce565b8181038181111561051857610518610fce565b808202811582820484141761051857610518610fce565b60008261103e57634e487b7160e01b600052601260045260246000fd5b50049056fea26469706673582212206ce83f85492dcb5385c62712ce1097d8b4d8bd85e802f5fb82bc3104c9343daf64736f6c63430008150033",
    "linkReferences": {}
  },
  "methodIdentifiers": {
    "acceptOwnership()": "79ba5097",
    "allowance(address,address)": "dd62ed3e",
    "approve(address,uint256)": "095ea7b3",
    "balanceOf(address)": "70a08231",
    "calculatePurchasePrice(uint256)": "145f1019",
    "calculateSalePrice(uint256)": "7d57b560",
    "decimals()": "313ce567",
    "initialPrice()": "1d0806ae",
    "maxGasPrice()": "3de39c11",
    "name()": "06fdde03",
    "owner()": "8da5cb5b",
    "pendingOwner()": "e30c3978",
    "purchaseTokens(uint256)": "7b97008d",
    "renounceOwnership()": "715018a6",
    "sellTokens(uint256)": "6c11bcd3",
    "setMaxGasPrice(uint256)": "d2fa635e",
    "slope()": "83caf275",
    "symbol()": "95d89b41",
    "totalSupply()": "18160ddd",
    "transfer(address,uint256)": "a9059cbb",
    "transferFrom(address,address,uint256)": "23b872dd",
    "transferOwnership(address)": "f2fde38b",
    "withdrawFunds()": "24600fc3"
  },
  "id": 25
}