{
  "abi": [
    {
      "inputs": [
        {
          "internalType": "uint256",
          "name": "_initialPrice",
          "type": "uint256"
        },
        {
          "internalType": "uint256",
          "name": "_slope",
          "type": "uint256"
        }
      ],
      "stateMutability": "nonpayable",
      "type": "constructor"
    },
    {
      "inputs": [
        {
          "internalType": "address",
          "name": "spender",
          "type": "address"
        },
        {
          "internalType": "uint256",
          "name": "allowance",
          "type": "uint256"
        },
        {
          "internalType": "uint256",
          "name": "needed",
          "type": "uint256"
        }
      ],
      "name": "ERC20InsufficientAllowance",
      "type": "error"
    },
    {
      "inputs": [
        {
          "internalType": "address",
          "name": "sender",
          "type": "address"
        },
        {
          "internalType": "uint256",
          "name": "balance",
          "type": "uint256"
        },
        {
          "internalType": "uint256",
          "name": "needed",
          "type": "uint256"
        }
      ],
      "name": "ERC20InsufficientBalance",
      "type": "error"
    },
    {
      "inputs": [
        {
          "internalType": "address",
          "name": "approver",
          "type": "address"
        }
      ],
      "name": "ERC20InvalidApprover",
      "type": "error"
    },
    {
      "inputs": [
        {
          "internalType": "address",
          "name": "receiver",
          "type": "address"
        }
      ],
      "name": "ERC20InvalidReceiver",
      "type": "error"
    },
    {
      "inputs": [
        {
          "internalType": "address",
          "name": "sender",
          "type": "address"
        }
      ],
      "name": "ERC20InvalidSender",
      "type": "error"
    },
    {
      "inputs": [
        {
          "internalType": "address",
          "name": "spender",
          "type": "address"
        }
      ],
      "name": "ERC20InvalidSpender",
      "type": "error"
    },
    {
      "anonymous": false,
      "inputs": [
        {
          "indexed": true,
          "internalType": "address",
          "name": "owner",
          "type": "address"
        },
        {
          "indexed": true,
          "internalType": "address",
          "name": "spender",
          "type": "address"
        },
        {
          "indexed": false,
          "internalType": "uint256",
          "name": "value",
          "type": "uint256"
        }
      ],
      "name": "Approval",
      "type": "event"
    },
    {
      "anonymous": false,
      "inputs": [
        {
          "indexed": true,
          "internalType": "address",
          "name": "buyer",
          "type": "address"
        },
        {
          "indexed": false,
          "internalType": "uint256",
          "name": "amount",
          "type": "uint256"
        },
        {
          "indexed": false,
          "internalType": "uint256",
          "name": "paid",
          "type": "uint256"
        },
        {
          "indexed": false,
          "internalType": "uint256",
          "name": "newSupply",
          "type": "uint256"
        }
      ],
      "name": "TokensPurchased",
      "type": "event"
    },
    {
      "anonymous": false,
      "inputs": [
        {
          "indexed": true,
          "internalType": "address",
          "name": "seller",
          "type": "address"
        },
        {
          "indexed": false,
          "internalType": "uint256",
          "name": "amount",
          "type": "uint256"
        },
        {
          "indexed": false,
          "internalType": "uint256",
          "name": "received",
          "type": "uint256"
        },
        {
          "indexed": false,
          "internalType": "uint256",
          "name": "newSupply",
          "type": "uint256"
        }
      ],
      "name": "TokensSold",
      "type": "event"
    },
    {
      "anonymous": false,
      "inputs": [
        {
          "indexed": true,
          "internalType": "address",
          "name": "from",
          "type": "address"
        },
        {
          "indexed": true,
          "internalType": "address",
          "name": "to",
          "type": "address"
        },
        {
          "indexed": false,
          "internalType": "uint256",
          "name": "value",
          "type": "uint256"
        }
      ],
      "name": "Transfer",
      "type": "event"
    },
    {
      "inputs": [
        {
          "internalType": "address",
          "name": "owner",
          "type": "address"
        },
        {
          "internalType": "address",
          "name": "spender",
          "type": "address"
        }
      ],
      "name": "allowance",
      "outputs": [
        {
          "internalType": "uint256",
          "name": "",
          "type": "uint256"
        }
      ],
      "stateMutability": "view",
      "type": "function"
    },
    {
      "inputs": [
        {
          "internalType": "address",
          "name": "spender",
          "type": "address"
        },
        {
          "internalType": "uint256",
          "name": "value",
          "type": "uint256"
        }
      ],
      "name": "approve",
      "outputs": [
        {
          "internalType": "bool",
          "name": "",
          "type": "bool"
        }
      ],
      "stateMutability": "nonpayable",
      "type": "function"
    },
    {
      "inputs": [
        {
          "internalType": "address",
          "name": "account",
          "type": "address"
        }
      ],
      "name": "balanceOf",
      "outputs": [
        {
          "internalType": "uint256",
          "name": "",
          "type": "uint256"
        }
      ],
      "stateMutability": "view",
      "type": "function"
    },
    {
      "inputs": [
        {
          "internalType": "address",
          "name": "",
          "type": "address"
        }
      ],
      "name": "balances",
      "outputs": [
        {
          "internalType": "uint256",
          "name": "",
          "type": "uint256"
        }
      ],
      "stateMutability": "view",
      "type": "function"
    },
    {
      "inputs": [],
      "name": "buybackPool",
      "outputs": [
        {
          "internalType": "uint256",
          "name": "",
          "type": "uint256"
        }
      ],
      "stateMutability": "view",
      "type": "function"
    },
    {
      "inputs": [
        {
          "internalType": "uint256",
          "name": "_tokensToBuy",
          "type": "uint256"
        }
      ],
      "name": "calculatePurchasePrice",
      "outputs": [
        {
          "internalType": "uint256",
          "name": "",
          "type": "uint256"
        }
      ],
      "stateMutability": "view",
      "type": "function"
    },
    {
      "inputs": [
        {
          "internalType": "uint256",
          "name": "_tokensToSell",
          "type": "uint256"
        }
      ],
      "name": "calculateSalePrice",
      "outputs": [
        {
          "internalType": "uint256",
          "name": "",
          "type": "uint256"
        }
      ],
      "stateMutability": "view",
      "type": "function"
    },
    {
      "inputs": [],
      "name": "decimals",
      "outputs": [
        {
          "internalType": "uint8",
          "name": "",
          "type": "uint8"
        }
      ],
      "stateMutability": "view",
      "type": "function"
    },
    {
      "inputs": [],
      "name": "initialPrice",
      "outputs": [
        {
          "internalType": "uint256",
          "name": "",
          "type": "uint256"
        }
      ],
      "stateMutability": "view",
      "type": "function"
    },
    {
      "inputs": [],
      "name": "maxGasLimit",
      "outputs": [
        {
          "internalType": "uint256",
          "name": "",
          "type": "uint256"
        }
      ],
      "stateMutability": "view",
      "type": "function"
    },
    {
      "inputs": [],
      "name": "name",
      "outputs": [
        {
          "internalType": "string",
          "name": "",
          "type": "string"
        }
      ],
      "stateMutability": "view",
      "type": "function"
    },
    {
      "inputs": [],
      "name": "owner",
      "outputs": [
        {
          "internalType": "address",
          "name": "",
          "type": "address"
        }
      ],
      "stateMutability": "view",
      "type": "function"
    },
    {
      "inputs": [
        {
          "internalType": "uint256",
          "name": "_tokensToBuy",
          "type": "uint256"
        }
      ],
      "name": "purchaseTokens",
      "outputs": [],
      "stateMutability": "payable",
      "type": "function"
    },
    {
      "inputs": [
        {
          "internalType": "uint256",
          "name": "_tokensToSell",
          "type": "uint256"
        }
      ],
      "name": "sellTokens",
      "outputs": [],
      "stateMutability": "nonpayable",
      "type": "function"
    },
    {
      "inputs": [
        {
          "internalType": "uint256",
          "name": "_newLimit",
          "type": "uint256"
        }
      ],
      "name": "setMaxGasLimit",
      "outputs": [],
      "stateMutability": "nonpayable",
      "type": "function"
    },
    {
      "inputs": [],
      "name": "slope",
      "outputs": [
        {
          "internalType": "uint256",
          "name": "",
          "type": "uint256"
        }
      ],
      "stateMutability": "view",
      "type": "function"
    },
    {
      "inputs": [],
      "name": "supply",
      "outputs": [
        {
          "internalType": "uint256",
          "name": "",
          "type": "uint256"
        }
      ],
      "stateMutability": "view",
      "type": "function"
    },
    {
      "inputs": [],
      "name": "symbol",
      "outputs": [
        {
          "internalType": "string",
          "name": "",
          "type": "string"
        }
      ],
      "stateMutability": "view",
      "type": "function"
    },
    {
      "inputs": [],
      "name": "totalFundsRaised",
      "outputs": [
        {
          "internalType": "uint256",
          "name": "",
          "type": "uint256"
        }
      ],
      "stateMutability": "view",
      "type": "function"
    },
    {
      "inputs": [],
      "name": "totalSupply",
      "outputs": [
        {
          "internalType": "uint256",
          "name": "",
          "type": "uint256"
        }
      ],
      "stateMutability": "view",
      "type": "function"
    },
    {
      "inputs": [
        {
          "internalType": "address",
          "name": "to",
          "type": "address"
        },
        {
          "internalType": "uint256",
          "name": "value",
          "type": "uint256"
        }
      ],
      "name": "transfer",
      "outputs": [
        {
          "internalType": "bool",
          "name": "",
          "type": "bool"
        }
      ],
      "stateMutability": "nonpayable",
      "type": "function"
    },
    {
      "inputs": [
        {
          "internalType": "address",
          "name": "from",
          "type": "address"
        },
        {
          "internalType": "address",
          "name": "to",
          "type": "address"
        },
        {
          "internalType": "uint256",
          "name": "value",
          "type": "uint256"
        }
      ],
      "name": "transferFrom",
      "outputs": [
        {
          "internalType": "bool",
          "name": "",
          "type": "bool"
        }
      ],
      "stateMutability": "nonpayable",
      "type": "function"
    },
    {
      "inputs": [],
      "name": "withdrawFunds",
      "outputs": [],
      "stateMutability": "nonpayable",
      "type": "function"
    }
  ],
  "bytecode": {
    "object": "0x60c0604052620271006009553480156200001857600080fd5b5060405162001243380380620012438339810160408190526200003b91620000c8565b60405180604001604052806004815260200163109bdb9960e21b815250604051806040016040528060048152602001631093d39160e21b815250816003908162000086919062000192565b50600462000095828262000192565b5050600580546001600160a01b031916331790555060809190915260a0526000600681905560078190556008556200025e565b60008060408385031215620000dc57600080fd5b505080516020909101519092909150565b634e487b7160e01b600052604160045260246000fd5b600181811c908216806200011857607f821691505b6020821081036200013957634e487b7160e01b600052602260045260246000fd5b50919050565b601f8211156200018d57600081815260208120601f850160051c81016020861015620001685750805b601f850160051c820191505b81811015620001895782815560010162000174565b5050505b505050565b81516001600160401b03811115620001ae57620001ae620000ed565b620001c681620001bf845462000103565b846200013f565b602080601f831160018114620001fe5760008415620001e55750858301515b600019600386901b1c1916600185901b17855562000189565b600085815260208120601f198616915b828110156200022f578886015182559484019460019091019084016200020e565b50858210156200024e5787850151600019600388901b60f8161c191681555b5050505050600190811b01905550565b60805160a051610fb162000292600039600081816103a6015261099001526000818161022901526109b90152610fb16000f3fe6080604052600436106101405760003560e01c8063427c0c7f116100b65780637d57b5601161006f5780637d57b5601461037457806383caf275146103945780638da5cb5b146103c857806395d89b4114610400578063a9059cbb14610415578063dd62ed3e1461043557600080fd5b8063427c0c7f146102c957806347446570146102df5780635e45da23146102f55780636c11bcd31461030b57806370a082311461032b5780637b97008d1461036157600080fd5b806318160ddd1161010857806318160ddd146102025780631d0806ae1461021757806323b872dd1461024b57806324600fc31461026b57806327e235e314610280578063313ce567146102ad57600080fd5b8063047fc9aa1461014557806306fdde031461016e578063095ea7b314610190578063145f1019146101c05780631776834a146101e0575b600080fd5b34801561015157600080fd5b5061015b60065481565b6040519081526020015b60405180910390f35b34801561017a57600080fd5b5061018361047b565b6040516101659190610d50565b34801561019c57600080fd5b506101b06101ab366004610dba565b61050d565b6040519015158152602001610165565b3480156101cc57600080fd5b5061015b6101db366004610de4565b610527565b3480156101ec57600080fd5b506102006101fb366004610de4565b61054d565b005b34801561020e57600080fd5b5060025461015b565b34801561022357600080fd5b5061015b7f000000000000000000000000000000000000000000000000000000000000000081565b34801561025757600080fd5b506101b0610266366004610dfd565b610585565b34801561027757600080fd5b506102006105a9565b34801561028c57600080fd5b5061015b61029b366004610e39565b600a6020526000908152604090205481565b3480156102b957600080fd5b5060405160128152602001610165565b3480156102d557600080fd5b5061015b60085481565b3480156102eb57600080fd5b5061015b60075481565b34801561030157600080fd5b5061015b60095481565b34801561031757600080fd5b50610200610326366004610de4565b61060f565b34801561033757600080fd5b5061015b610346366004610e39565b6001600160a01b031660009081526020819052604090205490565b61020061036f366004610de4565b61078a565b34801561038057600080fd5b5061015b61038f366004610de4565b610907565b3480156103a057600080fd5b5061015b7f000000000000000000000000000000000000000000000000000000000000000081565b3480156103d457600080fd5b506005546103e8906001600160a01b031681565b6040516001600160a01b039091168152602001610165565b34801561040c57600080fd5b50610183610926565b34801561042157600080fd5b506101b0610430366004610dba565b610935565b34801561044157600080fd5b5061015b610450366004610e54565b6001600160a01b03918216600090815260016020908152604080832093909416825291909152205490565b60606003805461048a90610e87565b80601f01602080910402602001604051908101604052809291908181526020018280546104b690610e87565b80156105035780601f106104d857610100808354040283529160200191610503565b820191906000526020600020905b8154815290600101906020018083116104e657829003601f168201915b5050505050905090565b60003361051b818585610943565b60019150505b92915050565b600080826006546105389190610ed7565b905061054660065482610955565b9392505050565b6005546001600160a01b031633146105805760405162461bcd60e51b815260040161057790610eea565b60405180910390fd5b600955565b600033610593858285610a04565b61059e858585610a82565b506001949350505050565b6005546001600160a01b031633146105d35760405162461bcd60e51b815260040161057790610eea565b6005546040516001600160a01b03909116904780156108fc02916000818181858888f1935050505015801561060c573d6000803e3d6000fd5b50565b600081116106565760405162461bcd60e51b8152602060048201526014602482015273125b9d985b1a59081d1bdad95b88185b5bdd5b9d60621b6044820152606401610577565b336000908152600a60205260409020548111156106ac5760405162461bcd60e51b8152602060048201526014602482015273496e73756666696369656e742062616c616e636560601b6044820152606401610577565b60006106b782610907565b9050816006546106c79190610f2f565b600655336000908152600a60205260409020546106e5908390610f2f565b336000908152600a6020526040902055600854610703908290610f2f565b6008556107103383610ae1565b604051339082156108fc029083906000818181858888f1935050505015801561073d573d6000803e3d6000fd5b5060065460408051848152602081018490529081019190915233907f6db63bebf1e6540277744df32846ebdb98385b1a73f2d5de49b28348add63f50906060015b60405180910390a25050565b6009545a11156107d15760405162461bcd60e51b815260206004820152601260248201527111d85cc81b1a5b5a5d08195e18d95959195960721b6044820152606401610577565b600081116108185760405162461bcd60e51b8152602060048201526014602482015273125b9d985b1a59081d1bdad95b88185b5bdd5b9d60621b6044820152606401610577565b600061082382610527565b90508034101561086c5760405162461bcd60e51b8152602060048201526014602482015273125b9cdd59999a58da595b9d081c185e5b595b9d60621b6044820152606401610577565b8160065461087a9190610ed7565b600655336000908152600a6020526040902054610898908390610ed7565b336000908152600a60205260409020556008546108b6908290610ed7565b6008556108c33383610b1b565b60065460408051848152602081018490529081019190915233907f0d1a0d5e3d583a0e92588799dd06e50fd78c07daf05f0cc06d7b848b1ca445f19060600161077e565b600080826006546109189190610f2f565b905061054681600654610955565b60606004805461048a90610e87565b60003361051b818585610a82565b6109508383836001610b51565b505050565b600081830361096657506000610521565b600060026109748585610f2f565b60016109808688610ed7565b61098a9190610f2f565b6109b4907f0000000000000000000000000000000000000000000000000000000000000000610f42565b6109de7f000000000000000000000000000000000000000000000000000000000000000080610ed7565b6109e89190610ed7565b6109f29190610f42565b6109fc9190610f59565b949350505050565b6001600160a01b038381166000908152600160209081526040808320938616835292905220546000198114610a7c5781811015610a6d57604051637dc7a0d960e11b81526001600160a01b03841660048201526024810182905260448101839052606401610577565b610a7c84848484036000610b51565b50505050565b6001600160a01b038316610aac57604051634b637e8f60e11b815260006004820152602401610577565b6001600160a01b038216610ad65760405163ec442f0560e01b815260006004820152602401610577565b610950838383610c26565b6001600160a01b038216610b0b57604051634b637e8f60e11b815260006004820152602401610577565b610b1782600083610c26565b5050565b6001600160a01b038216610b455760405163ec442f0560e01b815260006004820152602401610577565b610b1760008383610c26565b6001600160a01b038416610b7b5760405163e602df0560e01b815260006004820152602401610577565b6001600160a01b038316610ba557604051634a1406b160e11b815260006004820152602401610577565b6001600160a01b0380851660009081526001602090815260408083209387168352929052208290558015610a7c57826001600160a01b0316846001600160a01b03167f8c5be1e5ebec7d5bd14f71427d1e84f3dd0314c0f7b2291e5b200ac8c7c3b92584604051610c1891815260200190565b60405180910390a350505050565b6001600160a01b038316610c51578060026000828254610c469190610ed7565b90915550610cc39050565b6001600160a01b03831660009081526020819052604090205481811015610ca45760405163391434e360e21b81526001600160a01b03851660048201526024810182905260448101839052606401610577565b6001600160a01b03841660009081526020819052604090209082900390555b6001600160a01b038216610cdf57600280548290039055610cfe565b6001600160a01b03821660009081526020819052604090208054820190555b816001600160a01b0316836001600160a01b03167fddf252ad1be2c89b69c2b068fc378daa952ba7f163c4a11628f55a4df523b3ef83604051610d4391815260200190565b60405180910390a3505050565b600060208083528351808285015260005b81811015610d7d57858101830151858201604001528201610d61565b506000604082860101526040601f19601f8301168501019250505092915050565b80356001600160a01b0381168114610db557600080fd5b919050565b60008060408385031215610dcd57600080fd5b610dd683610d9e565b946020939093013593505050565b600060208284031215610df657600080fd5b5035919050565b600080600060608486031215610e1257600080fd5b610e1b84610d9e565b9250610e2960208501610d9e565b9150604084013590509250925092565b600060208284031215610e4b57600080fd5b61054682610d9e565b60008060408385031215610e6757600080fd5b610e7083610d9e565b9150610e7e60208401610d9e565b90509250929050565b600181811c90821680610e9b57607f821691505b602082108103610ebb57634e487b7160e01b600052602260045260246000fd5b50919050565b634e487b7160e01b600052601160045260246000fd5b8082018082111561052157610521610ec1565b60208082526025908201527f4f6e6c7920746865206f776e65722063616e2063616c6c20746869732066756e60408201526431ba34b7b760d91b606082015260800190565b8181038181111561052157610521610ec1565b808202811582820484141761052157610521610ec1565b600082610f7657634e487b7160e01b600052601260045260246000fd5b50049056fea2646970667358221220ee6ea882d30710f8e841a5f4f39c27418c68ff534be3f56a8e49b00a4dd8bfbd64736f6c63430008150033",
    "linkReferences": {}
  },
  "methodIdentifiers": {
    "allowance(address,address)": "dd62ed3e",
    "approve(address,uint256)": "095ea7b3",
    "balanceOf(address)": "70a08231",
    "balances(address)": "27e235e3",
    "buybackPool()": "47446570",
    "calculatePurchasePrice(uint256)": "145f1019",
    "calculateSalePrice(uint256)": "7d57b560",
    "decimals()": "313ce567",
    "initialPrice()": "1d0806ae",
    "maxGasLimit()": "5e45da23",
    "name()": "06fdde03",
    "owner()": "8da5cb5b",
    "purchaseTokens(uint256)": "7b97008d",
    "sellTokens(uint256)": "6c11bcd3",
    "setMaxGasLimit(uint256)": "1776834a",
    "slope()": "83caf275",
    "supply()": "047fc9aa",
    "symbol()": "95d89b41",
    "totalFundsRaised()": "427c0c7f",
    "totalSupply()": "18160ddd",
    "transfer(address,uint256)": "a9059cbb",
    "transferFrom(address,address,uint256)": "23b872dd",
    "withdrawFunds()": "24600fc3"
  },
  "id": 23
}