{
  "abi": [
    {
      "inputs": [
        {
          "internalType": "uint256",
          "name": "_initialPrice",
          "type": "uint256"
        },
        {
          "internalType": "uint256",
          "name": "_slope",
          "type": "uint256"
        }
      ],
      "stateMutability": "nonpayable",
      "type": "constructor"
    },
    {
      "inputs": [
        {
          "internalType": "address",
          "name": "spender",
          "type": "address"
        },
        {
          "internalType": "uint256",
          "name": "allowance",
          "type": "uint256"
        },
        {
          "internalType": "uint256",
          "name": "needed",
          "type": "uint256"
        }
      ],
      "name": "ERC20InsufficientAllowance",
      "type": "error"
    },
    {
      "inputs": [
        {
          "internalType": "address",
          "name": "sender",
          "type": "address"
        },
        {
          "internalType": "uint256",
          "name": "balance",
          "type": "uint256"
        },
        {
          "internalType": "uint256",
          "name": "needed",
          "type": "uint256"
        }
      ],
      "name": "ERC20InsufficientBalance",
      "type": "error"
    },
    {
      "inputs": [
        {
          "internalType": "address",
          "name": "approver",
          "type": "address"
        }
      ],
      "name": "ERC20InvalidApprover",
      "type": "error"
    },
    {
      "inputs": [
        {
          "internalType": "address",
          "name": "receiver",
          "type": "address"
        }
      ],
      "name": "ERC20InvalidReceiver",
      "type": "error"
    },
    {
      "inputs": [
        {
          "internalType": "address",
          "name": "sender",
          "type": "address"
        }
      ],
      "name": "ERC20InvalidSender",
      "type": "error"
    },
    {
      "inputs": [
        {
          "internalType": "address",
          "name": "spender",
          "type": "address"
        }
      ],
      "name": "ERC20InvalidSpender",
      "type": "error"
    },
    {
      "anonymous": false,
      "inputs": [
        {
          "indexed": true,
          "internalType": "address",
          "name": "owner",
          "type": "address"
        },
        {
          "indexed": true,
          "internalType": "address",
          "name": "spender",
          "type": "address"
        },
        {
          "indexed": false,
          "internalType": "uint256",
          "name": "value",
          "type": "uint256"
        }
      ],
      "name": "Approval",
      "type": "event"
    },
    {
      "anonymous": false,
      "inputs": [
        {
          "indexed": true,
          "internalType": "address",
          "name": "buyer",
          "type": "address"
        },
        {
          "indexed": false,
          "internalType": "uint256",
          "name": "amount",
          "type": "uint256"
        },
        {
          "indexed": false,
          "internalType": "uint256",
          "name": "paid",
          "type": "uint256"
        },
        {
          "indexed": false,
          "internalType": "uint256",
          "name": "newSupply",
          "type": "uint256"
        }
      ],
      "name": "TokensPurchased",
      "type": "event"
    },
    {
      "anonymous": false,
      "inputs": [
        {
          "indexed": true,
          "internalType": "address",
          "name": "seller",
          "type": "address"
        },
        {
          "indexed": false,
          "internalType": "uint256",
          "name": "amount",
          "type": "uint256"
        },
        {
          "indexed": false,
          "internalType": "uint256",
          "name": "received",
          "type": "uint256"
        },
        {
          "indexed": false,
          "internalType": "uint256",
          "name": "newSupply",
          "type": "uint256"
        }
      ],
      "name": "TokensSold",
      "type": "event"
    },
    {
      "anonymous": false,
      "inputs": [
        {
          "indexed": true,
          "internalType": "address",
          "name": "from",
          "type": "address"
        },
        {
          "indexed": true,
          "internalType": "address",
          "name": "to",
          "type": "address"
        },
        {
          "indexed": false,
          "internalType": "uint256",
          "name": "value",
          "type": "uint256"
        }
      ],
      "name": "Transfer",
      "type": "event"
    },
    {
      "inputs": [
        {
          "internalType": "address",
          "name": "owner",
          "type": "address"
        },
        {
          "internalType": "address",
          "name": "spender",
          "type": "address"
        }
      ],
      "name": "allowance",
      "outputs": [
        {
          "internalType": "uint256",
          "name": "",
          "type": "uint256"
        }
      ],
      "stateMutability": "view",
      "type": "function"
    },
    {
      "inputs": [
        {
          "internalType": "address",
          "name": "spender",
          "type": "address"
        },
        {
          "internalType": "uint256",
          "name": "value",
          "type": "uint256"
        }
      ],
      "name": "approve",
      "outputs": [
        {
          "internalType": "bool",
          "name": "",
          "type": "bool"
        }
      ],
      "stateMutability": "nonpayable",
      "type": "function"
    },
    {
      "inputs": [
        {
          "internalType": "address",
          "name": "account",
          "type": "address"
        }
      ],
      "name": "balanceOf",
      "outputs": [
        {
          "internalType": "uint256",
          "name": "",
          "type": "uint256"
        }
      ],
      "stateMutability": "view",
      "type": "function"
    },
    {
      "inputs": [
        {
          "internalType": "uint256",
          "name": "_tokensToBuy",
          "type": "uint256"
        }
      ],
      "name": "calculatePurchasePrice",
      "outputs": [
        {
          "internalType": "uint256",
          "name": "",
          "type": "uint256"
        }
      ],
      "stateMutability": "view",
      "type": "function"
    },
    {
      "inputs": [
        {
          "internalType": "uint256",
          "name": "_tokensToSell",
          "type": "uint256"
        }
      ],
      "name": "calculateSalePrice",
      "outputs": [
        {
          "internalType": "uint256",
          "name": "",
          "type": "uint256"
        }
      ],
      "stateMutability": "view",
      "type": "function"
    },
    {
      "inputs": [],
      "name": "decimals",
      "outputs": [
        {
          "internalType": "uint8",
          "name": "",
          "type": "uint8"
        }
      ],
      "stateMutability": "view",
      "type": "function"
    },
    {
      "inputs": [],
      "name": "initialPrice",
      "outputs": [
        {
          "internalType": "uint256",
          "name": "",
          "type": "uint256"
        }
      ],
      "stateMutability": "view",
      "type": "function"
    },
    {
      "inputs": [],
      "name": "maxGasLimit",
      "outputs": [
        {
          "internalType": "uint256",
          "name": "",
          "type": "uint256"
        }
      ],
      "stateMutability": "view",
      "type": "function"
    },
    {
      "inputs": [],
      "name": "name",
      "outputs": [
        {
          "internalType": "string",
          "name": "",
          "type": "string"
        }
      ],
      "stateMutability": "view",
      "type": "function"
    },
    {
      "inputs": [],
      "name": "owner",
      "outputs": [
        {
          "internalType": "address",
          "name": "",
          "type": "address"
        }
      ],
      "stateMutability": "view",
      "type": "function"
    },
    {
      "inputs": [
        {
          "internalType": "uint256",
          "name": "_tokensToBuy",
          "type": "uint256"
        }
      ],
      "name": "purchaseTokens",
      "outputs": [],
      "stateMutability": "payable",
      "type": "function"
    },
    {
      "inputs": [
        {
          "internalType": "uint256",
          "name": "_tokensToSell",
          "type": "uint256"
        }
      ],
      "name": "sellTokens",
      "outputs": [],
      "stateMutability": "nonpayable",
      "type": "function"
    },
    {
      "inputs": [
        {
          "internalType": "uint256",
          "name": "_newLimit",
          "type": "uint256"
        }
      ],
      "name": "setMaxGasLimit",
      "outputs": [],
      "stateMutability": "nonpayable",
      "type": "function"
    },
    {
      "inputs": [],
      "name": "slope",
      "outputs": [
        {
          "internalType": "uint256",
          "name": "",
          "type": "uint256"
        }
      ],
      "stateMutability": "view",
      "type": "function"
    },
    {
      "inputs": [],
      "name": "symbol",
      "outputs": [
        {
          "internalType": "string",
          "name": "",
          "type": "string"
        }
      ],
      "stateMutability": "view",
      "type": "function"
    },
    {
      "inputs": [],
      "name": "totalSupply",
      "outputs": [
        {
          "internalType": "uint256",
          "name": "",
          "type": "uint256"
        }
      ],
      "stateMutability": "view",
      "type": "function"
    },
    {
      "inputs": [
        {
          "internalType": "address",
          "name": "to",
          "type": "address"
        },
        {
          "internalType": "uint256",
          "name": "value",
          "type": "uint256"
        }
      ],
      "name": "transfer",
      "outputs": [
        {
          "internalType": "bool",
          "name": "",
          "type": "bool"
        }
      ],
      "stateMutability": "nonpayable",
      "type": "function"
    },
    {
      "inputs": [
        {
          "internalType": "address",
          "name": "from",
          "type": "address"
        },
        {
          "internalType": "address",
          "name": "to",
          "type": "address"
        },
        {
          "internalType": "uint256",
          "name": "value",
          "type": "uint256"
        }
      ],
      "name": "transferFrom",
      "outputs": [
        {
          "internalType": "bool",
          "name": "",
          "type": "bool"
        }
      ],
      "stateMutability": "nonpayable",
      "type": "function"
    },
    {
      "inputs": [],
      "name": "withdrawFunds",
      "outputs": [],
      "stateMutability": "nonpayable",
      "type": "function"
    }
  ],
  "bytecode": {
    "object": "0x60c0604052620271006006553480156200001857600080fd5b506040516200118c3803806200118c8339810160408190526200003b91620000b9565b60405180604001604052806004815260200163109bdb9960e21b815250604051806040016040528060048152602001631093d39160e21b815250816003908162000086919062000183565b50600462000095828262000183565b5050600580546001600160a01b031916331790555060809190915260a0526200024f565b60008060408385031215620000cd57600080fd5b505080516020909101519092909150565b634e487b7160e01b600052604160045260246000fd5b600181811c908216806200010957607f821691505b6020821081036200012a57634e487b7160e01b600052602260045260246000fd5b50919050565b601f8211156200017e57600081815260208120601f850160051c81016020861015620001595750805b601f850160051c820191505b818110156200017a5782815560010162000165565b5050505b505050565b81516001600160401b038111156200019f576200019f620000de565b620001b781620001b08454620000f4565b8462000130565b602080601f831160018114620001ef5760008415620001d65750858301515b600019600386901b1c1916600185901b1785556200017a565b600085815260208120601f198616915b828110156200022057888601518255948401946001909101908401620001ff565b50858210156200023f5787850151600019600388901b60f8161c191681555b5050505050600190811b01905550565b60805160a051610f09620002836000396000818161030f01526108e80152600081816101eb01526109110152610f096000f3fe6080604052600436106101145760003560e01c80635e45da23116100a057806383caf2751161006457806383caf275146102fd5780638da5cb5b1461033157806395d89b4114610369578063a9059cbb1461037e578063dd62ed3e1461039e57600080fd5b80635e45da231461025e5780636c11bcd31461027457806370a08231146102945780637b97008d146102ca5780637d57b560146102dd57600080fd5b806318160ddd116100e757806318160ddd146101c45780631d0806ae146101d957806323b872dd1461020d57806324600fc31461022d578063313ce5671461024257600080fd5b806306fdde0314610119578063095ea7b314610144578063145f1019146101745780631776834a146101a2575b600080fd5b34801561012557600080fd5b5061012e6103e4565b60405161013b9190610ca8565b60405180910390f35b34801561015057600080fd5b5061016461015f366004610d12565b610476565b604051901515815260200161013b565b34801561018057600080fd5b5061019461018f366004610d3c565b610490565b60405190815260200161013b565b3480156101ae57600080fd5b506101c26101bd366004610d3c565b6104c2565b005b3480156101d057600080fd5b50600254610194565b3480156101e557600080fd5b506101947f000000000000000000000000000000000000000000000000000000000000000081565b34801561021957600080fd5b50610164610228366004610d55565b6104fa565b34801561023957600080fd5b506101c261051e565b34801561024e57600080fd5b506040516012815260200161013b565b34801561026a57600080fd5b5061019460065481565b34801561028057600080fd5b506101c261028f366004610d3c565b6105e0565b3480156102a057600080fd5b506101946102af366004610d91565b6001600160a01b031660009081526020819052604090205490565b6101c26102d8366004610d3c565b610718565b3480156102e957600080fd5b506101946102f8366004610d3c565b610853565b34801561030957600080fd5b506101947f000000000000000000000000000000000000000000000000000000000000000081565b34801561033d57600080fd5b50600554610351906001600160a01b031681565b6040516001600160a01b03909116815260200161013b565b34801561037557600080fd5b5061012e61087e565b34801561038a57600080fd5b50610164610399366004610d12565b61088d565b3480156103aa57600080fd5b506101946103b9366004610dac565b6001600160a01b03918216600090815260016020908152604080832093909416825291909152205490565b6060600380546103f390610ddf565b80601f016020809104026020016040519081016040528092919081815260200182805461041f90610ddf565b801561046c5780601f106104415761010080835404028352916020019161046c565b820191906000526020600020905b81548152906001019060200180831161044f57829003601f168201915b5050505050905090565b60003361048481858561089b565b60019150505b92915050565b6000808261049d60025490565b6104a79190610e2f565b90506104bb6104b560025490565b826108ad565b9392505050565b6005546001600160a01b031633146104f55760405162461bcd60e51b81526004016104ec90610e42565b60405180910390fd5b600655565b60003361050885828561095c565b6105138585856109da565b506001949350505050565b6005546001600160a01b031633146105485760405162461bcd60e51b81526004016104ec90610e42565b6005546040516000916001600160a01b03169047908381818185875af1925050503d8060008114610595576040519150601f19603f3d011682016040523d82523d6000602084013e61059a565b606091505b50509050806105dd5760405162461bcd60e51b815260206004820152600f60248201526e151c985b9cd9995c8819985a5b1959608a1b60448201526064016104ec565b50565b600081116106275760405162461bcd60e51b8152602060048201526014602482015273125b9d985b1a59081d1bdad95b88185b5bdd5b9d60621b60448201526064016104ec565b600061063282610853565b905061063e3383610a39565b604051600090339083908381818185875af1925050503d8060008114610680576040519150601f19603f3d011682016040523d82523d6000602084013e610685565b606091505b50509050806106c85760405162461bcd60e51b815260206004820152600f60248201526e151c985b9cd9995c8819985a5b1959608a1b60448201526064016104ec565b337f6db63bebf1e6540277744df32846ebdb98385b1a73f2d5de49b28348add63f5084846106f560025490565b6040805193845260208401929092529082015260600160405180910390a2505050565b6006545a111561075f5760405162461bcd60e51b815260206004820152601260248201527111d85cc81b1a5b5a5d08195e18d95959195960721b60448201526064016104ec565b600081116107a65760405162461bcd60e51b8152602060048201526014602482015273125b9d985b1a59081d1bdad95b88185b5bdd5b9d60621b60448201526064016104ec565b60006107b182610490565b9050803410156107fa5760405162461bcd60e51b8152602060048201526014602482015273125b9cdd59999a58da595b9d081c185e5b595b9d60621b60448201526064016104ec565b6108043383610a73565b337f0d1a0d5e3d583a0e92588799dd06e50fd78c07daf05f0cc06d7b848b1ca445f1838361083160025490565b6040805193845260208401929092529082015260600160405180910390a25050565b6000808261086060025490565b61086a9190610e87565b90506104bb8161087960025490565b6108ad565b6060600480546103f390610ddf565b6000336104848185856109da565b6108a88383836001610aa9565b505050565b60008183036108be5750600061048a565b600060026108cc8585610e87565b60016108d88688610e2f565b6108e29190610e87565b61090c907f0000000000000000000000000000000000000000000000000000000000000000610e9a565b6109367f000000000000000000000000000000000000000000000000000000000000000080610e2f565b6109409190610e2f565b61094a9190610e9a565b6109549190610eb1565b949350505050565b6001600160a01b0383811660009081526001602090815260408083209386168352929052205460001981146109d457818110156109c557604051637dc7a0d960e11b81526001600160a01b038416600482015260248101829052604481018390526064016104ec565b6109d484848484036000610aa9565b50505050565b6001600160a01b038316610a0457604051634b637e8f60e11b8152600060048201526024016104ec565b6001600160a01b038216610a2e5760405163ec442f0560e01b8152600060048201526024016104ec565b6108a8838383610b7e565b6001600160a01b038216610a6357604051634b637e8f60e11b8152600060048201526024016104ec565b610a6f82600083610b7e565b5050565b6001600160a01b038216610a9d5760405163ec442f0560e01b8152600060048201526024016104ec565b610a6f60008383610b7e565b6001600160a01b038416610ad35760405163e602df0560e01b8152600060048201526024016104ec565b6001600160a01b038316610afd57604051634a1406b160e11b8152600060048201526024016104ec565b6001600160a01b03808516600090815260016020908152604080832093871683529290522082905580156109d457826001600160a01b0316846001600160a01b03167f8c5be1e5ebec7d5bd14f71427d1e84f3dd0314c0f7b2291e5b200ac8c7c3b92584604051610b7091815260200190565b60405180910390a350505050565b6001600160a01b038316610ba9578060026000828254610b9e9190610e2f565b90915550610c1b9050565b6001600160a01b03831660009081526020819052604090205481811015610bfc5760405163391434e360e21b81526001600160a01b038516600482015260248101829052604481018390526064016104ec565b6001600160a01b03841660009081526020819052604090209082900390555b6001600160a01b038216610c3757600280548290039055610c56565b6001600160a01b03821660009081526020819052604090208054820190555b816001600160a01b0316836001600160a01b03167fddf252ad1be2c89b69c2b068fc378daa952ba7f163c4a11628f55a4df523b3ef83604051610c9b91815260200190565b60405180910390a3505050565b600060208083528351808285015260005b81811015610cd557858101830151858201604001528201610cb9565b506000604082860101526040601f19601f8301168501019250505092915050565b80356001600160a01b0381168114610d0d57600080fd5b919050565b60008060408385031215610d2557600080fd5b610d2e83610cf6565b946020939093013593505050565b600060208284031215610d4e57600080fd5b5035919050565b600080600060608486031215610d6a57600080fd5b610d7384610cf6565b9250610d8160208501610cf6565b9150604084013590509250925092565b600060208284031215610da357600080fd5b6104bb82610cf6565b60008060408385031215610dbf57600080fd5b610dc883610cf6565b9150610dd660208401610cf6565b90509250929050565b600181811c90821680610df357607f821691505b602082108103610e1357634e487b7160e01b600052602260045260246000fd5b50919050565b634e487b7160e01b600052601160045260246000fd5b8082018082111561048a5761048a610e19565b60208082526025908201527f4f6e6c7920746865206f776e65722063616e2063616c6c20746869732066756e60408201526431ba34b7b760d91b606082015260800190565b8181038181111561048a5761048a610e19565b808202811582820484141761048a5761048a610e19565b600082610ece57634e487b7160e01b600052601260045260246000fd5b50049056fea264697066735822122086cbcfcc8faec39d0ea55ca206e2d3d4ce4988cb8dd8d2120f6695ad45bb8ce264736f6c63430008150033",
    "linkReferences": {}
  },
  "methodIdentifiers": {
    "allowance(address,address)": "dd62ed3e",
    "approve(address,uint256)": "095ea7b3",
    "balanceOf(address)": "70a08231",
    "calculatePurchasePrice(uint256)": "145f1019",
    "calculateSalePrice(uint256)": "7d57b560",
    "decimals()": "313ce567",
    "initialPrice()": "1d0806ae",
    "maxGasLimit()": "5e45da23",
    "name()": "06fdde03",
    "owner()": "8da5cb5b",
    "purchaseTokens(uint256)": "7b97008d",
    "sellTokens(uint256)": "6c11bcd3",
    "setMaxGasLimit(uint256)": "1776834a",
    "slope()": "83caf275",
    "symbol()": "95d89b41",
    "totalSupply()": "18160ddd",
    "transfer(address,uint256)": "a9059cbb",
    "transferFrom(address,address,uint256)": "23b872dd",
    "withdrawFunds()": "24600fc3"
  },
  "id": 23
}