{
  "abi": [
    {
      "inputs": [
        {
          "internalType": "uint256",
          "name": "_initialPrice",
          "type": "uint256"
        },
        {
          "internalType": "uint256",
          "name": "_slope",
          "type": "uint256"
        }
      ],
      "stateMutability": "nonpayable",
      "type": "constructor"
    },
    {
      "inputs": [
        {
          "internalType": "address",
          "name": "spender",
          "type": "address"
        },
        {
          "internalType": "uint256",
          "name": "allowance",
          "type": "uint256"
        },
        {
          "internalType": "uint256",
          "name": "needed",
          "type": "uint256"
        }
      ],
      "name": "ERC20InsufficientAllowance",
      "type": "error"
    },
    {
      "inputs": [
        {
          "internalType": "address",
          "name": "sender",
          "type": "address"
        },
        {
          "internalType": "uint256",
          "name": "balance",
          "type": "uint256"
        },
        {
          "internalType": "uint256",
          "name": "needed",
          "type": "uint256"
        }
      ],
      "name": "ERC20InsufficientBalance",
      "type": "error"
    },
    {
      "inputs": [
        {
          "internalType": "address",
          "name": "approver",
          "type": "address"
        }
      ],
      "name": "ERC20InvalidApprover",
      "type": "error"
    },
    {
      "inputs": [
        {
          "internalType": "address",
          "name": "receiver",
          "type": "address"
        }
      ],
      "name": "ERC20InvalidReceiver",
      "type": "error"
    },
    {
      "inputs": [
        {
          "internalType": "address",
          "name": "sender",
          "type": "address"
        }
      ],
      "name": "ERC20InvalidSender",
      "type": "error"
    },
    {
      "inputs": [
        {
          "internalType": "address",
          "name": "spender",
          "type": "address"
        }
      ],
      "name": "ERC20InvalidSpender",
      "type": "error"
    },
    {
      "anonymous": false,
      "inputs": [
        {
          "indexed": true,
          "internalType": "address",
          "name": "owner",
          "type": "address"
        },
        {
          "indexed": true,
          "internalType": "address",
          "name": "spender",
          "type": "address"
        },
        {
          "indexed": false,
          "internalType": "uint256",
          "name": "value",
          "type": "uint256"
        }
      ],
      "name": "Approval",
      "type": "event"
    },
    {
      "anonymous": false,
      "inputs": [
        {
          "indexed": true,
          "internalType": "address",
          "name": "buyer",
          "type": "address"
        },
        {
          "indexed": false,
          "internalType": "uint256",
          "name": "amount",
          "type": "uint256"
        },
        {
          "indexed": false,
          "internalType": "uint256",
          "name": "paid",
          "type": "uint256"
        },
        {
          "indexed": false,
          "internalType": "uint256",
          "name": "newSupply",
          "type": "uint256"
        }
      ],
      "name": "TokensPurchased",
      "type": "event"
    },
    {
      "anonymous": false,
      "inputs": [
        {
          "indexed": true,
          "internalType": "address",
          "name": "seller",
          "type": "address"
        },
        {
          "indexed": false,
          "internalType": "uint256",
          "name": "amount",
          "type": "uint256"
        },
        {
          "indexed": false,
          "internalType": "uint256",
          "name": "received",
          "type": "uint256"
        },
        {
          "indexed": false,
          "internalType": "uint256",
          "name": "newSupply",
          "type": "uint256"
        }
      ],
      "name": "TokensSold",
      "type": "event"
    },
    {
      "anonymous": false,
      "inputs": [
        {
          "indexed": true,
          "internalType": "address",
          "name": "from",
          "type": "address"
        },
        {
          "indexed": true,
          "internalType": "address",
          "name": "to",
          "type": "address"
        },
        {
          "indexed": false,
          "internalType": "uint256",
          "name": "value",
          "type": "uint256"
        }
      ],
      "name": "Transfer",
      "type": "event"
    },
    {
      "inputs": [
        {
          "internalType": "address",
          "name": "owner",
          "type": "address"
        },
        {
          "internalType": "address",
          "name": "spender",
          "type": "address"
        }
      ],
      "name": "allowance",
      "outputs": [
        {
          "internalType": "uint256",
          "name": "",
          "type": "uint256"
        }
      ],
      "stateMutability": "view",
      "type": "function"
    },
    {
      "inputs": [
        {
          "internalType": "address",
          "name": "spender",
          "type": "address"
        },
        {
          "internalType": "uint256",
          "name": "value",
          "type": "uint256"
        }
      ],
      "name": "approve",
      "outputs": [
        {
          "internalType": "bool",
          "name": "",
          "type": "bool"
        }
      ],
      "stateMutability": "nonpayable",
      "type": "function"
    },
    {
      "inputs": [
        {
          "internalType": "address",
          "name": "account",
          "type": "address"
        }
      ],
      "name": "balanceOf",
      "outputs": [
        {
          "internalType": "uint256",
          "name": "",
          "type": "uint256"
        }
      ],
      "stateMutability": "view",
      "type": "function"
    },
    {
      "inputs": [
        {
          "internalType": "address",
          "name": "",
          "type": "address"
        }
      ],
      "name": "balances",
      "outputs": [
        {
          "internalType": "uint256",
          "name": "",
          "type": "uint256"
        }
      ],
      "stateMutability": "view",
      "type": "function"
    },
    {
      "inputs": [],
      "name": "buybackPool",
      "outputs": [
        {
          "internalType": "uint256",
          "name": "",
          "type": "uint256"
        }
      ],
      "stateMutability": "view",
      "type": "function"
    },
    {
      "inputs": [
        {
          "internalType": "uint256",
          "name": "_tokensToBuy",
          "type": "uint256"
        }
      ],
      "name": "calculatePurchasePrice",
      "outputs": [
        {
          "internalType": "uint256",
          "name": "",
          "type": "uint256"
        }
      ],
      "stateMutability": "view",
      "type": "function"
    },
    {
      "inputs": [
        {
          "internalType": "uint256",
          "name": "_tokensToSell",
          "type": "uint256"
        }
      ],
      "name": "calculateSalePrice",
      "outputs": [
        {
          "internalType": "uint256",
          "name": "",
          "type": "uint256"
        }
      ],
      "stateMutability": "view",
      "type": "function"
    },
    {
      "inputs": [],
      "name": "decimals",
      "outputs": [
        {
          "internalType": "uint8",
          "name": "",
          "type": "uint8"
        }
      ],
      "stateMutability": "view",
      "type": "function"
    },
    {
      "inputs": [],
      "name": "initialPrice",
      "outputs": [
        {
          "internalType": "uint256",
          "name": "",
          "type": "uint256"
        }
      ],
      "stateMutability": "view",
      "type": "function"
    },
    {
      "inputs": [],
      "name": "maxGasLimit",
      "outputs": [
        {
          "internalType": "uint256",
          "name": "",
          "type": "uint256"
        }
      ],
      "stateMutability": "view",
      "type": "function"
    },
    {
      "inputs": [],
      "name": "name",
      "outputs": [
        {
          "internalType": "string",
          "name": "",
          "type": "string"
        }
      ],
      "stateMutability": "view",
      "type": "function"
    },
    {
      "inputs": [],
      "name": "owner",
      "outputs": [
        {
          "internalType": "address",
          "name": "",
          "type": "address"
        }
      ],
      "stateMutability": "view",
      "type": "function"
    },
    {
      "inputs": [
        {
          "internalType": "uint256",
          "name": "_tokensToBuy",
          "type": "uint256"
        }
      ],
      "name": "purchaseTokens",
      "outputs": [],
      "stateMutability": "payable",
      "type": "function"
    },
    {
      "inputs": [
        {
          "internalType": "uint256",
          "name": "_tokensToSell",
          "type": "uint256"
        }
      ],
      "name": "sellTokens",
      "outputs": [],
      "stateMutability": "nonpayable",
      "type": "function"
    },
    {
      "inputs": [
        {
          "internalType": "uint256",
          "name": "_newLimit",
          "type": "uint256"
        }
      ],
      "name": "setMaxGasLimit",
      "outputs": [],
      "stateMutability": "nonpayable",
      "type": "function"
    },
    {
      "inputs": [],
      "name": "slope",
      "outputs": [
        {
          "internalType": "uint256",
          "name": "",
          "type": "uint256"
        }
      ],
      "stateMutability": "view",
      "type": "function"
    },
    {
      "inputs": [],
      "name": "supply",
      "outputs": [
        {
          "internalType": "uint256",
          "name": "",
          "type": "uint256"
        }
      ],
      "stateMutability": "view",
      "type": "function"
    },
    {
      "inputs": [],
      "name": "symbol",
      "outputs": [
        {
          "internalType": "string",
          "name": "",
          "type": "string"
        }
      ],
      "stateMutability": "view",
      "type": "function"
    },
    {
      "inputs": [],
      "name": "totalFundsRaised",
      "outputs": [
        {
          "internalType": "uint256",
          "name": "",
          "type": "uint256"
        }
      ],
      "stateMutability": "view",
      "type": "function"
    },
    {
      "inputs": [],
      "name": "totalSupply",
      "outputs": [
        {
          "internalType": "uint256",
          "name": "",
          "type": "uint256"
        }
      ],
      "stateMutability": "view",
      "type": "function"
    },
    {
      "inputs": [
        {
          "internalType": "address",
          "name": "to",
          "type": "address"
        },
        {
          "internalType": "uint256",
          "name": "value",
          "type": "uint256"
        }
      ],
      "name": "transfer",
      "outputs": [
        {
          "internalType": "bool",
          "name": "",
          "type": "bool"
        }
      ],
      "stateMutability": "nonpayable",
      "type": "function"
    },
    {
      "inputs": [
        {
          "internalType": "address",
          "name": "from",
          "type": "address"
        },
        {
          "internalType": "address",
          "name": "to",
          "type": "address"
        },
        {
          "internalType": "uint256",
          "name": "value",
          "type": "uint256"
        }
      ],
      "name": "transferFrom",
      "outputs": [
        {
          "internalType": "bool",
          "name": "",
          "type": "bool"
        }
      ],
      "stateMutability": "nonpayable",
      "type": "function"
    },
    {
      "inputs": [],
      "name": "withdrawFunds",
      "outputs": [],
      "stateMutability": "nonpayable",
      "type": "function"
    }
  ],
  "bytecode": {
    "object": "0x608060405262027100600b553480156200001857600080fd5b50604051620011a9380380620011a98339810160408190526200003b91620000c8565b60405180604001604052806004815260200163109bdb9960e21b815250604051806040016040528060048152602001631093d39160e21b815250816003908162000086919062000192565b50600462000095828262000192565b5050600580546001600160a01b0319163317905550600691909155600755600060088190556009819055600a556200025e565b60008060408385031215620000dc57600080fd5b505080516020909101519092909150565b634e487b7160e01b600052604160045260246000fd5b600181811c908216806200011857607f821691505b6020821081036200013957634e487b7160e01b600052602260045260246000fd5b50919050565b601f8211156200018d57600081815260208120601f850160051c81016020861015620001685750805b601f850160051c820191505b81811015620001895782815560010162000174565b5050505b505050565b81516001600160401b03811115620001ae57620001ae620000ed565b620001c681620001bf845462000103565b846200013f565b602080601f831160018114620001fe5760008415620001e55750858301515b600019600386901b1c1916600185901b17855562000189565b600085815260208120601f198616915b828110156200022f578886015182559484019460019091019084016200020e565b50858210156200024e5787850151600019600388901b60f8161c191681555b5050505050600190811b01905550565b610f3b806200026e6000396000f3fe6080604052600436106101405760003560e01c8063427c0c7f116100b65780637d57b5601161006f5780637d57b5601461035657806383caf275146103765780638da5cb5b1461038c57806395d89b41146103c4578063a9059cbb146103d9578063dd62ed3e146103f957600080fd5b8063427c0c7f146102ab57806347446570146102c15780635e45da23146102d75780636c11bcd3146102ed57806370a082311461030d5780637b97008d1461034357600080fd5b806318160ddd1161010857806318160ddd146102025780631d0806ae1461021757806323b872dd1461022d57806324600fc31461024d57806327e235e314610262578063313ce5671461028f57600080fd5b8063047fc9aa1461014557806306fdde031461016e578063095ea7b314610190578063145f1019146101c05780631776834a146101e0575b600080fd5b34801561015157600080fd5b5061015b60085481565b6040519081526020015b60405180910390f35b34801561017a57600080fd5b5061018361043f565b6040516101659190610cda565b34801561019c57600080fd5b506101b06101ab366004610d44565b6104d1565b6040519015158152602001610165565b3480156101cc57600080fd5b5061015b6101db366004610d6e565b6104eb565b3480156101ec57600080fd5b506102006101fb366004610d6e565b610511565b005b34801561020e57600080fd5b5060025461015b565b34801561022357600080fd5b5061015b60065481565b34801561023957600080fd5b506101b0610248366004610d87565b610549565b34801561025957600080fd5b5061020061056d565b34801561026e57600080fd5b5061015b61027d366004610dc3565b600c6020526000908152604090205481565b34801561029b57600080fd5b5060405160128152602001610165565b3480156102b757600080fd5b5061015b600a5481565b3480156102cd57600080fd5b5061015b60095481565b3480156102e357600080fd5b5061015b600b5481565b3480156102f957600080fd5b50610200610308366004610d6e565b6105d3565b34801561031957600080fd5b5061015b610328366004610dc3565b6001600160a01b031660009081526020819052604090205490565b610200610351366004610d6e565b61074e565b34801561036257600080fd5b5061015b610371366004610d6e565b6108cb565b34801561038257600080fd5b5061015b60075481565b34801561039857600080fd5b506005546103ac906001600160a01b031681565b6040516001600160a01b039091168152602001610165565b3480156103d057600080fd5b506101836108ea565b3480156103e557600080fd5b506101b06103f4366004610d44565b6108f9565b34801561040557600080fd5b5061015b610414366004610dde565b6001600160a01b03918216600090815260016020908152604080832093909416825291909152205490565b60606003805461044e90610e11565b80601f016020809104026020016040519081016040528092919081815260200182805461047a90610e11565b80156104c75780601f1061049c576101008083540402835291602001916104c7565b820191906000526020600020905b8154815290600101906020018083116104aa57829003601f168201915b5050505050905090565b6000336104df818585610907565b60019150505b92915050565b600080826008546104fc9190610e61565b905061050a60085482610919565b9392505050565b6005546001600160a01b031633146105445760405162461bcd60e51b815260040161053b90610e74565b60405180910390fd5b600b55565b60003361055785828561098e565b610562858585610a0c565b506001949350505050565b6005546001600160a01b031633146105975760405162461bcd60e51b815260040161053b90610e74565b6005546040516001600160a01b03909116904780156108fc02916000818181858888f193505050501580156105d0573d6000803e3d6000fd5b50565b6000811161061a5760405162461bcd60e51b8152602060048201526014602482015273125b9d985b1a59081d1bdad95b88185b5bdd5b9d60621b604482015260640161053b565b336000908152600c60205260409020548111156106705760405162461bcd60e51b8152602060048201526014602482015273496e73756666696369656e742062616c616e636560601b604482015260640161053b565b600061067b826108cb565b90508160085461068b9190610eb9565b600855336000908152600c60205260409020546106a9908390610eb9565b336000908152600c6020526040902055600a546106c7908290610eb9565b600a556106d43383610a6b565b604051339082156108fc029083906000818181858888f19350505050158015610701573d6000803e3d6000fd5b5060085460408051848152602081018490529081019190915233907f6db63bebf1e6540277744df32846ebdb98385b1a73f2d5de49b28348add63f50906060015b60405180910390a25050565b600b545a11156107955760405162461bcd60e51b815260206004820152601260248201527111d85cc81b1a5b5a5d08195e18d95959195960721b604482015260640161053b565b600081116107dc5760405162461bcd60e51b8152602060048201526014602482015273125b9d985b1a59081d1bdad95b88185b5bdd5b9d60621b604482015260640161053b565b60006107e7826104eb565b9050803410156108305760405162461bcd60e51b8152602060048201526014602482015273125b9cdd59999a58da595b9d081c185e5b595b9d60621b604482015260640161053b565b8160085461083e9190610e61565b600855336000908152600c602052604090205461085c908390610e61565b336000908152600c6020526040902055600a5461087a908290610e61565b600a556108873383610aa5565b60085460408051848152602081018490529081019190915233907f0d1a0d5e3d583a0e92588799dd06e50fd78c07daf05f0cc06d7b848b1ca445f190606001610742565b600080826008546108dc9190610eb9565b905061050a81600854610919565b60606004805461044e90610e11565b6000336104df818585610a0c565b6109148383836001610adb565b505050565b600081830361092a575060006104e5565b600060026109388585610eb9565b60016109448688610e61565b61094e9190610eb9565b60075461095b9190610ecc565b6006546109689080610e61565b6109729190610e61565b61097c9190610ecc565b6109869190610ee3565b949350505050565b6001600160a01b038381166000908152600160209081526040808320938616835292905220546000198114610a0657818110156109f757604051637dc7a0d960e11b81526001600160a01b0384166004820152602481018290526044810183905260640161053b565b610a0684848484036000610adb565b50505050565b6001600160a01b038316610a3657604051634b637e8f60e11b81526000600482015260240161053b565b6001600160a01b038216610a605760405163ec442f0560e01b81526000600482015260240161053b565b610914838383610bb0565b6001600160a01b038216610a9557604051634b637e8f60e11b81526000600482015260240161053b565b610aa182600083610bb0565b5050565b6001600160a01b038216610acf5760405163ec442f0560e01b81526000600482015260240161053b565b610aa160008383610bb0565b6001600160a01b038416610b055760405163e602df0560e01b81526000600482015260240161053b565b6001600160a01b038316610b2f57604051634a1406b160e11b81526000600482015260240161053b565b6001600160a01b0380851660009081526001602090815260408083209387168352929052208290558015610a0657826001600160a01b0316846001600160a01b03167f8c5be1e5ebec7d5bd14f71427d1e84f3dd0314c0f7b2291e5b200ac8c7c3b92584604051610ba291815260200190565b60405180910390a350505050565b6001600160a01b038316610bdb578060026000828254610bd09190610e61565b90915550610c4d9050565b6001600160a01b03831660009081526020819052604090205481811015610c2e5760405163391434e360e21b81526001600160a01b0385166004820152602481018290526044810183905260640161053b565b6001600160a01b03841660009081526020819052604090209082900390555b6001600160a01b038216610c6957600280548290039055610c88565b6001600160a01b03821660009081526020819052604090208054820190555b816001600160a01b0316836001600160a01b03167fddf252ad1be2c89b69c2b068fc378daa952ba7f163c4a11628f55a4df523b3ef83604051610ccd91815260200190565b60405180910390a3505050565b600060208083528351808285015260005b81811015610d0757858101830151858201604001528201610ceb565b506000604082860101526040601f19601f8301168501019250505092915050565b80356001600160a01b0381168114610d3f57600080fd5b919050565b60008060408385031215610d5757600080fd5b610d6083610d28565b946020939093013593505050565b600060208284031215610d8057600080fd5b5035919050565b600080600060608486031215610d9c57600080fd5b610da584610d28565b9250610db360208501610d28565b9150604084013590509250925092565b600060208284031215610dd557600080fd5b61050a82610d28565b60008060408385031215610df157600080fd5b610dfa83610d28565b9150610e0860208401610d28565b90509250929050565b600181811c90821680610e2557607f821691505b602082108103610e4557634e487b7160e01b600052602260045260246000fd5b50919050565b634e487b7160e01b600052601160045260246000fd5b808201808211156104e5576104e5610e4b565b60208082526025908201527f4f6e6c7920746865206f776e65722063616e2063616c6c20746869732066756e60408201526431ba34b7b760d91b606082015260800190565b818103818111156104e5576104e5610e4b565b80820281158282048414176104e5576104e5610e4b565b600082610f0057634e487b7160e01b600052601260045260246000fd5b50049056fea2646970667358221220303f50c916b89eb4ea0efba38f5699c370fde91b42ff9cf7e58d2f7c114f29f764736f6c63430008150033",
    "linkReferences": {}
  },
  "methodIdentifiers": {
    "allowance(address,address)": "dd62ed3e",
    "approve(address,uint256)": "095ea7b3",
    "balanceOf(address)": "70a08231",
    "balances(address)": "27e235e3",
    "buybackPool()": "47446570",
    "calculatePurchasePrice(uint256)": "145f1019",
    "calculateSalePrice(uint256)": "7d57b560",
    "decimals()": "313ce567",
    "initialPrice()": "1d0806ae",
    "maxGasLimit()": "5e45da23",
    "name()": "06fdde03",
    "owner()": "8da5cb5b",
    "purchaseTokens(uint256)": "7b97008d",
    "sellTokens(uint256)": "6c11bcd3",
    "setMaxGasLimit(uint256)": "1776834a",
    "slope()": "83caf275",
    "supply()": "047fc9aa",
    "symbol()": "95d89b41",
    "totalFundsRaised()": "427c0c7f",
    "totalSupply()": "18160ddd",
    "transfer(address,uint256)": "a9059cbb",
    "transferFrom(address,address,uint256)": "23b872dd",
    "withdrawFunds()": "24600fc3"
  },
  "id": 24
}