{
  "abi": [
    {
      "inputs": [
        {
          "internalType": "uint256",
          "name": "_initialPrice",
          "type": "uint256"
        },
        {
          "internalType": "uint256",
          "name": "_slope",
          "type": "uint256"
        }
      ],
      "stateMutability": "nonpayable",
      "type": "constructor"
    },
    {
      "anonymous": false,
      "inputs": [
        {
          "indexed": true,
          "internalType": "address",
          "name": "buyer",
          "type": "address"
        },
        {
          "indexed": false,
          "internalType": "uint256",
          "name": "amount",
          "type": "uint256"
        },
        {
          "indexed": false,
          "internalType": "uint256",
          "name": "paid",
          "type": "uint256"
        },
        {
          "indexed": false,
          "internalType": "uint256",
          "name": "newSupply",
          "type": "uint256"
        }
      ],
      "name": "TokensPurchased",
      "type": "event"
    },
    {
      "anonymous": false,
      "inputs": [
        {
          "indexed": true,
          "internalType": "address",
          "name": "seller",
          "type": "address"
        },
        {
          "indexed": false,
          "internalType": "uint256",
          "name": "amount",
          "type": "uint256"
        },
        {
          "indexed": false,
          "internalType": "uint256",
          "name": "received",
          "type": "uint256"
        },
        {
          "indexed": false,
          "internalType": "uint256",
          "name": "newSupply",
          "type": "uint256"
        }
      ],
      "name": "TokensSold",
      "type": "event"
    },
    {
      "inputs": [
        {
          "internalType": "address",
          "name": "",
          "type": "address"
        }
      ],
      "name": "balances",
      "outputs": [
        {
          "internalType": "uint256",
          "name": "",
          "type": "uint256"
        }
      ],
      "stateMutability": "view",
      "type": "function"
    },
    {
      "inputs": [],
      "name": "buybackPool",
      "outputs": [
        {
          "internalType": "uint256",
          "name": "",
          "type": "uint256"
        }
      ],
      "stateMutability": "view",
      "type": "function"
    },
    {
      "inputs": [
        {
          "internalType": "uint256",
          "name": "_tokensToBuy",
          "type": "uint256"
        }
      ],
      "name": "calculatePurchasePrice",
      "outputs": [
        {
          "internalType": "uint256",
          "name": "",
          "type": "uint256"
        }
      ],
      "stateMutability": "view",
      "type": "function"
    },
    {
      "inputs": [
        {
          "internalType": "uint256",
          "name": "_tokensToSell",
          "type": "uint256"
        }
      ],
      "name": "calculateSalePrice",
      "outputs": [
        {
          "internalType": "uint256",
          "name": "",
          "type": "uint256"
        }
      ],
      "stateMutability": "view",
      "type": "function"
    },
    {
      "inputs": [],
      "name": "initialPrice",
      "outputs": [
        {
          "internalType": "uint256",
          "name": "",
          "type": "uint256"
        }
      ],
      "stateMutability": "view",
      "type": "function"
    },
    {
      "inputs": [],
      "name": "owner",
      "outputs": [
        {
          "internalType": "address",
          "name": "",
          "type": "address"
        }
      ],
      "stateMutability": "view",
      "type": "function"
    },
    {
      "inputs": [
        {
          "internalType": "uint256",
          "name": "_tokensToBuy",
          "type": "uint256"
        }
      ],
      "name": "purchaseTokens",
      "outputs": [],
      "stateMutability": "payable",
      "type": "function"
    },
    {
      "inputs": [
        {
          "internalType": "uint256",
          "name": "_tokensToSell",
          "type": "uint256"
        }
      ],
      "name": "sellTokens",
      "outputs": [],
      "stateMutability": "nonpayable",
      "type": "function"
    },
    {
      "inputs": [],
      "name": "slope",
      "outputs": [
        {
          "internalType": "uint256",
          "name": "",
          "type": "uint256"
        }
      ],
      "stateMutability": "view",
      "type": "function"
    },
    {
      "inputs": [],
      "name": "supply",
      "outputs": [
        {
          "internalType": "uint256",
          "name": "",
          "type": "uint256"
        }
      ],
      "stateMutability": "view",
      "type": "function"
    },
    {
      "inputs": [],
      "name": "totalFundsRaised",
      "outputs": [
        {
          "internalType": "uint256",
          "name": "",
          "type": "uint256"
        }
      ],
      "stateMutability": "view",
      "type": "function"
    },
    {
      "inputs": [],
      "name": "withdrawFunds",
      "outputs": [],
      "stateMutability": "nonpayable",
      "type": "function"
    }
  ],
  "bytecode": {
    "object": "0x608060405234801561001057600080fd5b5060405161071238038061071283398101604081905261002f9161005c565b600080546001600160a01b0319163317815560019290925560025560038190556004819055600555610080565b6000806040838503121561006f57600080fd5b505080516020909101519092909150565b6106838061008f6000396000f3fe6080604052600436106100a75760003560e01c8063474465701161006457806347446570146101655780636c11bcd31461017b5780637b97008d1461019b5780637d57b560146101ae57806383caf275146101ce5780638da5cb5b146101e457600080fd5b8063047fc9aa146100ac578063145f1019146100d55780631d0806ae146100f557806324600fc31461010b57806327e235e314610122578063427c0c7f1461014f575b600080fd5b3480156100b857600080fd5b506100c260035481565b6040519081526020015b60405180910390f35b3480156100e157600080fd5b506100c26100f03660046105b1565b61021c565b34801561010157600080fd5b506100c260015481565b34801561011757600080fd5b5061012061024c565b005b34801561012e57600080fd5b506100c261013d3660046105ca565b60066020526000908152604090205481565b34801561015b57600080fd5b506100c260055481565b34801561017157600080fd5b506100c260045481565b34801561018757600080fd5b506101206101963660046105b1565b6102f6565b6101206101a93660046105b1565b610467565b3480156101ba57600080fd5b506100c26101c93660046105b1565b610593565b3480156101da57600080fd5b506100c260025481565b3480156101f057600080fd5b50600054610204906001600160a01b031681565b6040516001600160a01b0390911681526020016100cc565b60008160035460025461022f9190610610565b60015461023c9190610627565b6102469190610610565b92915050565b6000546001600160a01b031633146102b95760405162461bcd60e51b815260206004820152602560248201527f4f6e6c7920746865206f776e65722063616e2063616c6c20746869732066756e60448201526431ba34b7b760d91b60648201526084015b60405180910390fd5b600080546040516001600160a01b03909116914780156108fc02929091818181858888f193505050501580156102f3573d6000803e3d6000fd5b50565b6000811161033d5760405162461bcd60e51b8152602060048201526014602482015273125b9d985b1a59081d1bdad95b88185b5bdd5b9d60621b60448201526064016102b0565b336000908152600660205260409020548111156103935760405162461bcd60e51b8152602060048201526014602482015273496e73756666696369656e742062616c616e636560601b60448201526064016102b0565b600061039e82610593565b9050816003546103ae919061063a565b600355336000908152600660205260409020546103cc90839061063a565b336000908152600660205260409020556005546103ea90829061063a565b600555604051339082156108fc029083906000818181858888f1935050505015801561041a573d6000803e3d6000fd5b5060035460408051848152602081018490529081019190915233907f6db63bebf1e6540277744df32846ebdb98385b1a73f2d5de49b28348add63f50906060015b60405180910390a25050565b600081116104ae5760405162461bcd60e51b8152602060048201526014602482015273125b9d985b1a59081d1bdad95b88185b5bdd5b9d60621b60448201526064016102b0565b60006104b98261021c565b9050803410156105025760405162461bcd60e51b8152602060048201526014602482015273125b9cdd59999a58da595b9d081c185e5b595b9d60621b60448201526064016102b0565b816003546105109190610627565b6003553360009081526006602052604090205461052e908390610627565b3360009081526006602052604090205560055461054c908290610627565b60055560035460408051848152602081018490529081019190915233907f0d1a0d5e3d583a0e92588799dd06e50fd78c07daf05f0cc06d7b848b1ca445f19060600161045b565b600081826003546105a4919061063a565b60025461022f9190610610565b6000602082840312156105c357600080fd5b5035919050565b6000602082840312156105dc57600080fd5b81356001600160a01b03811681146105f357600080fd5b9392505050565b634e487b7160e01b600052601160045260246000fd5b8082028115828204841417610246576102466105fa565b80820180821115610246576102466105fa565b81810381811115610246576102466105fa56fea264697066735822122056314872244ce6f9bb7b0f075095adadbbb3ef05c9b03bab8b8c30bb16cdcefd64736f6c63430008150033",
    "linkReferences": {}
  },
  "methodIdentifiers": {
    "balances(address)": "27e235e3",
    "buybackPool()": "47446570",
    "calculatePurchasePrice(uint256)": "145f1019",
    "calculateSalePrice(uint256)": "7d57b560",
    "initialPrice()": "1d0806ae",
    "owner()": "8da5cb5b",
    "purchaseTokens(uint256)": "7b97008d",
    "sellTokens(uint256)": "6c11bcd3",
    "slope()": "83caf275",
    "supply()": "047fc9aa",
    "totalFundsRaised()": "427c0c7f",
    "withdrawFunds()": "24600fc3"
  },
  "id": 24
}