{
  "abi": [
    {
      "inputs": [
        {
          "internalType": "uint256",
          "name": "_totalSupply",
          "type": "uint256"
        }
      ],
      "stateMutability": "nonpayable",
      "type": "constructor"
    },
    {
      "inputs": [
        {
          "internalType": "address",
          "name": "spender",
          "type": "address"
        },
        {
          "internalType": "uint256",
          "name": "allowance",
          "type": "uint256"
        },
        {
          "internalType": "uint256",
          "name": "needed",
          "type": "uint256"
        }
      ],
      "name": "ERC20InsufficientAllowance",
      "type": "error"
    },
    {
      "inputs": [
        {
          "internalType": "address",
          "name": "sender",
          "type": "address"
        },
        {
          "internalType": "uint256",
          "name": "balance",
          "type": "uint256"
        },
        {
          "internalType": "uint256",
          "name": "needed",
          "type": "uint256"
        }
      ],
      "name": "ERC20InsufficientBalance",
      "type": "error"
    },
    {
      "inputs": [
        {
          "internalType": "address",
          "name": "approver",
          "type": "address"
        }
      ],
      "name": "ERC20InvalidApprover",
      "type": "error"
    },
    {
      "inputs": [
        {
          "internalType": "address",
          "name": "receiver",
          "type": "address"
        }
      ],
      "name": "ERC20InvalidReceiver",
      "type": "error"
    },
    {
      "inputs": [
        {
          "internalType": "address",
          "name": "sender",
          "type": "address"
        }
      ],
      "name": "ERC20InvalidSender",
      "type": "error"
    },
    {
      "inputs": [
        {
          "internalType": "address",
          "name": "spender",
          "type": "address"
        }
      ],
      "name": "ERC20InvalidSpender",
      "type": "error"
    },
    {
      "inputs": [
        {
          "internalType": "address",
          "name": "owner",
          "type": "address"
        }
      ],
      "name": "OwnableInvalidOwner",
      "type": "error"
    },
    {
      "inputs": [
        {
          "internalType": "address",
          "name": "account",
          "type": "address"
        }
      ],
      "name": "OwnableUnauthorizedAccount",
      "type": "error"
    },
    {
      "anonymous": false,
      "inputs": [
        {
          "indexed": true,
          "internalType": "address",
          "name": "owner",
          "type": "address"
        },
        {
          "indexed": true,
          "internalType": "address",
          "name": "spender",
          "type": "address"
        },
        {
          "indexed": false,
          "internalType": "uint256",
          "name": "value",
          "type": "uint256"
        }
      ],
      "name": "Approval",
      "type": "event"
    },
    {
      "anonymous": false,
      "inputs": [
        {
          "indexed": true,
          "internalType": "address",
          "name": "previousOwner",
          "type": "address"
        },
        {
          "indexed": true,
          "internalType": "address",
          "name": "newOwner",
          "type": "address"
        }
      ],
      "name": "OwnershipTransferStarted",
      "type": "event"
    },
    {
      "anonymous": false,
      "inputs": [
        {
          "indexed": true,
          "internalType": "address",
          "name": "previousOwner",
          "type": "address"
        },
        {
          "indexed": true,
          "internalType": "address",
          "name": "newOwner",
          "type": "address"
        }
      ],
      "name": "OwnershipTransferred",
      "type": "event"
    },
    {
      "anonymous": false,
      "inputs": [
        {
          "indexed": true,
          "internalType": "address",
          "name": "from",
          "type": "address"
        },
        {
          "indexed": true,
          "internalType": "address",
          "name": "to",
          "type": "address"
        },
        {
          "indexed": false,
          "internalType": "uint256",
          "name": "value",
          "type": "uint256"
        }
      ],
      "name": "Transfer",
      "type": "event"
    },
    {
      "inputs": [],
      "name": "acceptOwnership",
      "outputs": [],
      "stateMutability": "nonpayable",
      "type": "function"
    },
    {
      "inputs": [
        {
          "internalType": "address",
          "name": "owner",
          "type": "address"
        },
        {
          "internalType": "address",
          "name": "spender",
          "type": "address"
        }
      ],
      "name": "allowance",
      "outputs": [
        {
          "internalType": "uint256",
          "name": "",
          "type": "uint256"
        }
      ],
      "stateMutability": "view",
      "type": "function"
    },
    {
      "inputs": [
        {
          "internalType": "address",
          "name": "spender",
          "type": "address"
        },
        {
          "internalType": "uint256",
          "name": "value",
          "type": "uint256"
        }
      ],
      "name": "approve",
      "outputs": [
        {
          "internalType": "bool",
          "name": "",
          "type": "bool"
        }
      ],
      "stateMutability": "nonpayable",
      "type": "function"
    },
    {
      "inputs": [
        {
          "internalType": "address",
          "name": "account",
          "type": "address"
        }
      ],
      "name": "balanceOf",
      "outputs": [
        {
          "internalType": "uint256",
          "name": "",
          "type": "uint256"
        }
      ],
      "stateMutability": "view",
      "type": "function"
    },
    {
      "inputs": [
        {
          "internalType": "address",
          "name": "_address",
          "type": "address"
        },
        {
          "internalType": "bool",
          "name": "_isBlacklisted",
          "type": "bool"
        }
      ],
      "name": "blacklist",
      "outputs": [],
      "stateMutability": "nonpayable",
      "type": "function"
    },
    {
      "inputs": [
        {
          "internalType": "address",
          "name": "",
          "type": "address"
        }
      ],
      "name": "blacklists",
      "outputs": [
        {
          "internalType": "bool",
          "name": "",
          "type": "bool"
        }
      ],
      "stateMutability": "view",
      "type": "function"
    },
    {
      "inputs": [],
      "name": "decimals",
      "outputs": [
        {
          "internalType": "uint8",
          "name": "",
          "type": "uint8"
        }
      ],
      "stateMutability": "view",
      "type": "function"
    },
    {
      "inputs": [],
      "name": "name",
      "outputs": [
        {
          "internalType": "string",
          "name": "",
          "type": "string"
        }
      ],
      "stateMutability": "view",
      "type": "function"
    },
    {
      "inputs": [],
      "name": "owner",
      "outputs": [
        {
          "internalType": "address",
          "name": "",
          "type": "address"
        }
      ],
      "stateMutability": "view",
      "type": "function"
    },
    {
      "inputs": [],
      "name": "pendingOwner",
      "outputs": [
        {
          "internalType": "address",
          "name": "",
          "type": "address"
        }
      ],
      "stateMutability": "view",
      "type": "function"
    },
    {
      "inputs": [],
      "name": "renounceOwnership",
      "outputs": [],
      "stateMutability": "nonpayable",
      "type": "function"
    },
    {
      "inputs": [],
      "name": "symbol",
      "outputs": [
        {
          "internalType": "string",
          "name": "",
          "type": "string"
        }
      ],
      "stateMutability": "view",
      "type": "function"
    },
    {
      "inputs": [],
      "name": "totalSupply",
      "outputs": [
        {
          "internalType": "uint256",
          "name": "",
          "type": "uint256"
        }
      ],
      "stateMutability": "view",
      "type": "function"
    },
    {
      "inputs": [
        {
          "internalType": "address",
          "name": "to",
          "type": "address"
        },
        {
          "internalType": "uint256",
          "name": "value",
          "type": "uint256"
        }
      ],
      "name": "transfer",
      "outputs": [
        {
          "internalType": "bool",
          "name": "",
          "type": "bool"
        }
      ],
      "stateMutability": "nonpayable",
      "type": "function"
    },
    {
      "inputs": [
        {
          "internalType": "address",
          "name": "from",
          "type": "address"
        },
        {
          "internalType": "address",
          "name": "to",
          "type": "address"
        },
        {
          "internalType": "uint256",
          "name": "value",
          "type": "uint256"
        }
      ],
      "name": "transferFrom",
      "outputs": [
        {
          "internalType": "bool",
          "name": "",
          "type": "bool"
        }
      ],
      "stateMutability": "nonpayable",
      "type": "function"
    },
    {
      "inputs": [
        {
          "internalType": "address",
          "name": "newOwner",
          "type": "address"
        }
      ],
      "name": "transferOwnership",
      "outputs": [],
      "stateMutability": "nonpayable",
      "type": "function"
    }
  ],
  "bytecode": {
    "object": "0x60806040523480156200001157600080fd5b5060405162000f9938038062000f99833981016040819052620000349162000356565b60408051808201825260068152652832b832ab1960d11b602080830191909152825180840190935260048352635045504560e01b908301529033806200009557604051631e4fbdf760e01b8152600060048201526024015b60405180910390fd5b620000a081620000da565b506005620000af838262000414565b506006620000be828262000414565b505050620000d33382620000f860201b60201c565b5062000508565b600180546001600160a01b0319169055620000f58162000136565b50565b6001600160a01b038216620001245760405163ec442f0560e01b8152600060048201526024016200008c565b620001326000838362000186565b5050565b600080546001600160a01b038381166001600160a01b0319831681178455604051919092169283917f8be0079c531659141344cd1fd0a4f28419497f9722a3daafe3b4186f6b6457e09190a35050565b620001928383620001a4565b6200019f83838362000223565b505050565b6001600160a01b03811660009081526007602052604090205460ff16158015620001e757506001600160a01b03821660009081526007602052604090205460ff16155b620001325760405162461bcd60e51b815260206004820152600b60248201526a109b1858dadb1a5cdd195960aa1b60448201526064016200008c565b6001600160a01b03831662000252578060046000828254620002469190620004e0565b90915550620002c69050565b6001600160a01b03831660009081526002602052604090205481811015620002a75760405163391434e360e21b81526001600160a01b038516600482015260248101829052604481018390526064016200008c565b6001600160a01b03841660009081526002602052604090209082900390555b6001600160a01b038216620002e45760048054829003905562000303565b6001600160a01b03821660009081526002602052604090208054820190555b816001600160a01b0316836001600160a01b03167fddf252ad1be2c89b69c2b068fc378daa952ba7f163c4a11628f55a4df523b3ef836040516200034991815260200190565b60405180910390a3505050565b6000602082840312156200036957600080fd5b5051919050565b634e487b7160e01b600052604160045260246000fd5b600181811c908216806200039b57607f821691505b602082108103620003bc57634e487b7160e01b600052602260045260246000fd5b50919050565b601f8211156200019f57600081815260208120601f850160051c81016020861015620003eb5750805b601f850160051c820191505b818110156200040c57828155600101620003f7565b505050505050565b81516001600160401b0381111562000430576200043062000370565b620004488162000441845462000386565b84620003c2565b602080601f831160018114620004805760008415620004675750858301515b600019600386901b1c1916600185901b1785556200040c565b600085815260208120601f198616915b82811015620004b15788860151825594840194600190910190840162000490565b5085821015620004d05787850151600019600388901b60f8161c191681555b5050505050600190811b01905550565b808201808211156200050257634e487b7160e01b600052601160045260246000fd5b92915050565b610a8180620005186000396000f3fe608060405234801561001057600080fd5b50600436106101005760003560e01c8063715018a611610097578063a9059cbb11610066578063a9059cbb14610218578063dd62ed3e1461022b578063e30c397814610264578063f2fde38b1461027557600080fd5b8063715018a6146101db57806379ba5097146101e35780638da5cb5b146101eb57806395d89b411461021057600080fd5b806323b872dd116100d357806323b872dd1461017b578063313ce5671461018e578063404e51291461019d57806370a08231146101b257600080fd5b806306fdde0314610105578063095ea7b31461012357806316c021291461014657806318160ddd14610169575b600080fd5b61010d610288565b60405161011a919061088f565b60405180910390f35b6101366101313660046108f9565b61031a565b604051901515815260200161011a565b610136610154366004610923565b60076020526000908152604090205460ff1681565b6004545b60405190815260200161011a565b610136610189366004610945565b610334565b6040516012815260200161011a565b6101b06101ab366004610981565b610358565b005b61016d6101c0366004610923565b6001600160a01b031660009081526002602052604090205490565b6101b061038b565b6101b061039f565b6000546001600160a01b03165b6040516001600160a01b03909116815260200161011a565b61010d6103e8565b6101366102263660046108f9565b6103f7565b61016d6102393660046109bd565b6001600160a01b03918216600090815260036020908152604080832093909416825291909152205490565b6001546001600160a01b03166101f8565b6101b0610283366004610923565b610405565b606060058054610297906109f0565b80601f01602080910402602001604051908101604052809291908181526020018280546102c3906109f0565b80156103105780601f106102e557610100808354040283529160200191610310565b820191906000526020600020905b8154815290600101906020018083116102f357829003601f168201915b5050505050905090565b600033610328818585610476565b60019150505b92915050565b600033610342858285610488565b61034d858585610506565b506001949350505050565b610360610565565b6001600160a01b03919091166000908152600760205260409020805460ff1916911515919091179055565b610393610565565b61039d6000610592565b565b60015433906001600160a01b031681146103dc5760405163118cdaa760e01b81526001600160a01b03821660048201526024015b60405180910390fd5b6103e581610592565b50565b606060068054610297906109f0565b600033610328818585610506565b61040d610565565b600180546001600160a01b0383166001600160a01b0319909116811790915561043e6000546001600160a01b031690565b6001600160a01b03167f38d16b8cac22d99fc7c124b9cd0de2d3fa1faef420bfe791d8c362d765e2270060405160405180910390a350565b61048383838360016105ab565b505050565b6001600160a01b03838116600090815260036020908152604080832093861683529290522054600019811461050057818110156104f157604051637dc7a0d960e11b81526001600160a01b038416600482015260248101829052604481018390526064016103d3565b610500848484840360006105ab565b50505050565b6001600160a01b03831661053057604051634b637e8f60e11b8152600060048201526024016103d3565b6001600160a01b03821661055a5760405163ec442f0560e01b8152600060048201526024016103d3565b610483838383610680565b6000546001600160a01b0316331461039d5760405163118cdaa760e01b81523360048201526024016103d3565b600180546001600160a01b03191690556103e581610695565b6001600160a01b0384166105d55760405163e602df0560e01b8152600060048201526024016103d3565b6001600160a01b0383166105ff57604051634a1406b160e11b8152600060048201526024016103d3565b6001600160a01b038085166000908152600360209081526040808320938716835292905220829055801561050057826001600160a01b0316846001600160a01b03167f8c5be1e5ebec7d5bd14f71427d1e84f3dd0314c0f7b2291e5b200ac8c7c3b9258460405161067291815260200190565b60405180910390a350505050565b61068a83836106e5565b610483838383610765565b600080546001600160a01b038381166001600160a01b0319831681178455604051919092169283917f8be0079c531659141344cd1fd0a4f28419497f9722a3daafe3b4186f6b6457e09190a35050565b6001600160a01b03811660009081526007602052604090205460ff1615801561072757506001600160a01b03821660009081526007602052604090205460ff16155b6107615760405162461bcd60e51b815260206004820152600b60248201526a109b1858dadb1a5cdd195960aa1b60448201526064016103d3565b5050565b6001600160a01b0383166107905780600460008282546107859190610a2a565b909155506108029050565b6001600160a01b038316600090815260026020526040902054818110156107e35760405163391434e360e21b81526001600160a01b038516600482015260248101829052604481018390526064016103d3565b6001600160a01b03841660009081526002602052604090209082900390555b6001600160a01b03821661081e5760048054829003905561083d565b6001600160a01b03821660009081526002602052604090208054820190555b816001600160a01b0316836001600160a01b03167fddf252ad1be2c89b69c2b068fc378daa952ba7f163c4a11628f55a4df523b3ef8360405161088291815260200190565b60405180910390a3505050565b600060208083528351808285015260005b818110156108bc578581018301518582016040015282016108a0565b506000604082860101526040601f19601f8301168501019250505092915050565b80356001600160a01b03811681146108f457600080fd5b919050565b6000806040838503121561090c57600080fd5b610915836108dd565b946020939093013593505050565b60006020828403121561093557600080fd5b61093e826108dd565b9392505050565b60008060006060848603121561095a57600080fd5b610963846108dd565b9250610971602085016108dd565b9150604084013590509250925092565b6000806040838503121561099457600080fd5b61099d836108dd565b9150602083013580151581146109b257600080fd5b809150509250929050565b600080604083850312156109d057600080fd5b6109d9836108dd565b91506109e7602084016108dd565b90509250929050565b600181811c90821680610a0457607f821691505b602082108103610a2457634e487b7160e01b600052602260045260246000fd5b50919050565b8082018082111561032e57634e487b7160e01b600052601160045260246000fdfea26469706673582212204a9fe2932b96275c2f7345c6c1e0d37040bef7c6c27f679c84d52baf03b9813264736f6c63430008150033",
    "linkReferences": {}
  },
  "methodIdentifiers": {
    "acceptOwnership()": "79ba5097",
    "allowance(address,address)": "dd62ed3e",
    "approve(address,uint256)": "095ea7b3",
    "balanceOf(address)": "70a08231",
    "blacklist(address,bool)": "404e5129",
    "blacklists(address)": "16c02129",
    "decimals()": "313ce567",
    "name()": "06fdde03",
    "owner()": "8da5cb5b",
    "pendingOwner()": "e30c3978",
    "renounceOwnership()": "715018a6",
    "symbol()": "95d89b41",
    "totalSupply()": "18160ddd",
    "transfer(address,uint256)": "a9059cbb",
    "transferFrom(address,address,uint256)": "23b872dd",
    "transferOwnership(address)": "f2fde38b"
  },
  "id": 29
}