{
  "abi": [
    {
      "inputs": [
        {
          "internalType": "uint256",
          "name": "_totalSupply",
          "type": "uint256"
        }
      ],
      "stateMutability": "nonpayable",
      "type": "constructor"
    },
    {
      "inputs": [
        {
          "internalType": "address",
          "name": "spender",
          "type": "address"
        },
        {
          "internalType": "uint256",
          "name": "allowance",
          "type": "uint256"
        },
        {
          "internalType": "uint256",
          "name": "needed",
          "type": "uint256"
        }
      ],
      "name": "ERC20InsufficientAllowance",
      "type": "error"
    },
    {
      "inputs": [
        {
          "internalType": "address",
          "name": "sender",
          "type": "address"
        },
        {
          "internalType": "uint256",
          "name": "balance",
          "type": "uint256"
        },
        {
          "internalType": "uint256",
          "name": "needed",
          "type": "uint256"
        }
      ],
      "name": "ERC20InsufficientBalance",
      "type": "error"
    },
    {
      "inputs": [
        {
          "internalType": "address",
          "name": "approver",
          "type": "address"
        }
      ],
      "name": "ERC20InvalidApprover",
      "type": "error"
    },
    {
      "inputs": [
        {
          "internalType": "address",
          "name": "receiver",
          "type": "address"
        }
      ],
      "name": "ERC20InvalidReceiver",
      "type": "error"
    },
    {
      "inputs": [
        {
          "internalType": "address",
          "name": "sender",
          "type": "address"
        }
      ],
      "name": "ERC20InvalidSender",
      "type": "error"
    },
    {
      "inputs": [
        {
          "internalType": "address",
          "name": "spender",
          "type": "address"
        }
      ],
      "name": "ERC20InvalidSpender",
      "type": "error"
    },
    {
      "inputs": [
        {
          "internalType": "address",
          "name": "owner",
          "type": "address"
        }
      ],
      "name": "OwnableInvalidOwner",
      "type": "error"
    },
    {
      "inputs": [
        {
          "internalType": "address",
          "name": "account",
          "type": "address"
        }
      ],
      "name": "OwnableUnauthorizedAccount",
      "type": "error"
    },
    {
      "anonymous": false,
      "inputs": [
        {
          "indexed": true,
          "internalType": "address",
          "name": "owner",
          "type": "address"
        },
        {
          "indexed": true,
          "internalType": "address",
          "name": "spender",
          "type": "address"
        },
        {
          "indexed": false,
          "internalType": "uint256",
          "name": "value",
          "type": "uint256"
        }
      ],
      "name": "Approval",
      "type": "event"
    },
    {
      "anonymous": false,
      "inputs": [
        {
          "indexed": true,
          "internalType": "address",
          "name": "previousOwner",
          "type": "address"
        },
        {
          "indexed": true,
          "internalType": "address",
          "name": "newOwner",
          "type": "address"
        }
      ],
      "name": "OwnershipTransferred",
      "type": "event"
    },
    {
      "anonymous": false,
      "inputs": [
        {
          "indexed": true,
          "internalType": "address",
          "name": "from",
          "type": "address"
        },
        {
          "indexed": true,
          "internalType": "address",
          "name": "to",
          "type": "address"
        },
        {
          "indexed": false,
          "internalType": "uint256",
          "name": "value",
          "type": "uint256"
        }
      ],
      "name": "Transfer",
      "type": "event"
    },
    {
      "inputs": [
        {
          "internalType": "address",
          "name": "owner",
          "type": "address"
        },
        {
          "internalType": "address",
          "name": "spender",
          "type": "address"
        }
      ],
      "name": "allowance",
      "outputs": [
        {
          "internalType": "uint256",
          "name": "",
          "type": "uint256"
        }
      ],
      "stateMutability": "view",
      "type": "function"
    },
    {
      "inputs": [
        {
          "internalType": "address",
          "name": "spender",
          "type": "address"
        },
        {
          "internalType": "uint256",
          "name": "value",
          "type": "uint256"
        }
      ],
      "name": "approve",
      "outputs": [
        {
          "internalType": "bool",
          "name": "",
          "type": "bool"
        }
      ],
      "stateMutability": "nonpayable",
      "type": "function"
    },
    {
      "inputs": [
        {
          "internalType": "address",
          "name": "account",
          "type": "address"
        }
      ],
      "name": "balanceOf",
      "outputs": [
        {
          "internalType": "uint256",
          "name": "",
          "type": "uint256"
        }
      ],
      "stateMutability": "view",
      "type": "function"
    },
    {
      "inputs": [
        {
          "internalType": "address",
          "name": "_address",
          "type": "address"
        },
        {
          "internalType": "bool",
          "name": "_isBlacklisted",
          "type": "bool"
        }
      ],
      "name": "blacklist",
      "outputs": [],
      "stateMutability": "nonpayable",
      "type": "function"
    },
    {
      "inputs": [
        {
          "internalType": "address",
          "name": "",
          "type": "address"
        }
      ],
      "name": "blacklists",
      "outputs": [
        {
          "internalType": "bool",
          "name": "",
          "type": "bool"
        }
      ],
      "stateMutability": "view",
      "type": "function"
    },
    {
      "inputs": [],
      "name": "decimals",
      "outputs": [
        {
          "internalType": "uint8",
          "name": "",
          "type": "uint8"
        }
      ],
      "stateMutability": "view",
      "type": "function"
    },
    {
      "inputs": [],
      "name": "name",
      "outputs": [
        {
          "internalType": "string",
          "name": "",
          "type": "string"
        }
      ],
      "stateMutability": "view",
      "type": "function"
    },
    {
      "inputs": [],
      "name": "owner",
      "outputs": [
        {
          "internalType": "address",
          "name": "",
          "type": "address"
        }
      ],
      "stateMutability": "view",
      "type": "function"
    },
    {
      "inputs": [],
      "name": "renounceOwnership",
      "outputs": [],
      "stateMutability": "nonpayable",
      "type": "function"
    },
    {
      "inputs": [],
      "name": "symbol",
      "outputs": [
        {
          "internalType": "string",
          "name": "",
          "type": "string"
        }
      ],
      "stateMutability": "view",
      "type": "function"
    },
    {
      "inputs": [],
      "name": "totalSupply",
      "outputs": [
        {
          "internalType": "uint256",
          "name": "",
          "type": "uint256"
        }
      ],
      "stateMutability": "view",
      "type": "function"
    },
    {
      "inputs": [
        {
          "internalType": "address",
          "name": "to",
          "type": "address"
        },
        {
          "internalType": "uint256",
          "name": "value",
          "type": "uint256"
        }
      ],
      "name": "transfer",
      "outputs": [
        {
          "internalType": "bool",
          "name": "",
          "type": "bool"
        }
      ],
      "stateMutability": "nonpayable",
      "type": "function"
    },
    {
      "inputs": [
        {
          "internalType": "address",
          "name": "from",
          "type": "address"
        },
        {
          "internalType": "address",
          "name": "to",
          "type": "address"
        },
        {
          "internalType": "uint256",
          "name": "value",
          "type": "uint256"
        }
      ],
      "name": "transferFrom",
      "outputs": [
        {
          "internalType": "bool",
          "name": "",
          "type": "bool"
        }
      ],
      "stateMutability": "nonpayable",
      "type": "function"
    },
    {
      "inputs": [
        {
          "internalType": "address",
          "name": "newOwner",
          "type": "address"
        }
      ],
      "name": "transferOwnership",
      "outputs": [],
      "stateMutability": "nonpayable",
      "type": "function"
    }
  ],
  "bytecode": {
    "object": "0x60806040523480156200001157600080fd5b5060405162000eb238038062000eb2833981016040819052620000349162000338565b60408051808201825260068152652832b832ab1960d11b602080830191909152825180840190935260048352635045504560e01b908301529033806200009557604051631e4fbdf760e01b8152600060048201526024015b60405180910390fd5b620000a081620000da565b506004620000af8382620003f6565b506005620000be8282620003f6565b505050620000d333826200012a60201b60201c565b50620004ea565b600080546001600160a01b038381166001600160a01b0319831681178455604051919092169283917f8be0079c531659141344cd1fd0a4f28419497f9722a3daafe3b4186f6b6457e09190a35050565b6001600160a01b038216620001565760405163ec442f0560e01b8152600060048201526024016200008c565b620001646000838362000168565b5050565b62000174838362000186565b6200018183838362000205565b505050565b6001600160a01b03811660009081526006602052604090205460ff16158015620001c957506001600160a01b03821660009081526006602052604090205460ff16155b620001645760405162461bcd60e51b815260206004820152600b60248201526a109b1858dadb1a5cdd195960aa1b60448201526064016200008c565b6001600160a01b03831662000234578060036000828254620002289190620004c2565b90915550620002a89050565b6001600160a01b03831660009081526001602052604090205481811015620002895760405163391434e360e21b81526001600160a01b038516600482015260248101829052604481018390526064016200008c565b6001600160a01b03841660009081526001602052604090209082900390555b6001600160a01b038216620002c657600380548290039055620002e5565b6001600160a01b03821660009081526001602052604090208054820190555b816001600160a01b0316836001600160a01b03167fddf252ad1be2c89b69c2b068fc378daa952ba7f163c4a11628f55a4df523b3ef836040516200032b91815260200190565b60405180910390a3505050565b6000602082840312156200034b57600080fd5b5051919050565b634e487b7160e01b600052604160045260246000fd5b600181811c908216806200037d57607f821691505b6020821081036200039e57634e487b7160e01b600052602260045260246000fd5b50919050565b601f8211156200018157600081815260208120601f850160051c81016020861015620003cd5750805b601f850160051c820191505b81811015620003ee57828155600101620003d9565b505050505050565b81516001600160401b0381111562000412576200041262000352565b6200042a8162000423845462000368565b84620003a4565b602080601f831160018114620004625760008415620004495750858301515b600019600386901b1c1916600185901b178555620003ee565b600085815260208120601f198616915b82811015620004935788860151825594840194600190910190840162000472565b5085821015620004b25787850151600019600388901b60f8161c191681555b5050505050600190811b01905550565b80820180821115620004e457634e487b7160e01b600052601160045260246000fd5b92915050565b6109b880620004fa6000396000f3fe608060405234801561001057600080fd5b50600436106100ea5760003560e01c806370a082311161008c57806395d89b411161006657806395d89b41146101e8578063a9059cbb146101f0578063dd62ed3e14610203578063f2fde38b1461023c57600080fd5b806370a082311461019c578063715018a6146101c55780638da5cb5b146101cd57600080fd5b806318160ddd116100c857806318160ddd1461015357806323b872dd14610165578063313ce56714610178578063404e51291461018757600080fd5b806306fdde03146100ef578063095ea7b31461010d57806316c0212914610130575b600080fd5b6100f761024f565b60405161010491906107c6565b60405180910390f35b61012061011b366004610830565b6102e1565b6040519015158152602001610104565b61012061013e36600461085a565b60066020526000908152604090205460ff1681565b6003545b604051908152602001610104565b61012061017336600461087c565b6102fb565b60405160128152602001610104565b61019a6101953660046108b8565b61031f565b005b6101576101aa36600461085a565b6001600160a01b031660009081526001602052604090205490565b61019a610352565b6000546040516001600160a01b039091168152602001610104565b6100f7610366565b6101206101fe366004610830565b610375565b6101576102113660046108f4565b6001600160a01b03918216600090815260026020908152604080832093909416825291909152205490565b61019a61024a36600461085a565b610383565b60606004805461025e90610927565b80601f016020809104026020016040519081016040528092919081815260200182805461028a90610927565b80156102d75780601f106102ac576101008083540402835291602001916102d7565b820191906000526020600020905b8154815290600101906020018083116102ba57829003601f168201915b5050505050905090565b6000336102ef8185856103c6565b60019150505b92915050565b6000336103098582856103d8565b610314858585610456565b506001949350505050565b6103276104b5565b6001600160a01b03919091166000908152600660205260409020805460ff1916911515919091179055565b61035a6104b5565b61036460006104e2565b565b60606005805461025e90610927565b6000336102ef818585610456565b61038b6104b5565b6001600160a01b0381166103ba57604051631e4fbdf760e01b8152600060048201526024015b60405180910390fd5b6103c3816104e2565b50565b6103d38383836001610532565b505050565b6001600160a01b038381166000908152600260209081526040808320938616835292905220546000198114610450578181101561044157604051637dc7a0d960e11b81526001600160a01b038416600482015260248101829052604481018390526064016103b1565b61045084848484036000610532565b50505050565b6001600160a01b03831661048057604051634b637e8f60e11b8152600060048201526024016103b1565b6001600160a01b0382166104aa5760405163ec442f0560e01b8152600060048201526024016103b1565b6103d3838383610607565b6000546001600160a01b031633146103645760405163118cdaa760e01b81523360048201526024016103b1565b600080546001600160a01b038381166001600160a01b0319831681178455604051919092169283917f8be0079c531659141344cd1fd0a4f28419497f9722a3daafe3b4186f6b6457e09190a35050565b6001600160a01b03841661055c5760405163e602df0560e01b8152600060048201526024016103b1565b6001600160a01b03831661058657604051634a1406b160e11b8152600060048201526024016103b1565b6001600160a01b038085166000908152600260209081526040808320938716835292905220829055801561045057826001600160a01b0316846001600160a01b03167f8c5be1e5ebec7d5bd14f71427d1e84f3dd0314c0f7b2291e5b200ac8c7c3b925846040516105f991815260200190565b60405180910390a350505050565b610611838361061c565b6103d383838361069c565b6001600160a01b03811660009081526006602052604090205460ff1615801561065e57506001600160a01b03821660009081526006602052604090205460ff16155b6106985760405162461bcd60e51b815260206004820152600b60248201526a109b1858dadb1a5cdd195960aa1b60448201526064016103b1565b5050565b6001600160a01b0383166106c75780600360008282546106bc9190610961565b909155506107399050565b6001600160a01b0383166000908152600160205260409020548181101561071a5760405163391434e360e21b81526001600160a01b038516600482015260248101829052604481018390526064016103b1565b6001600160a01b03841660009081526001602052604090209082900390555b6001600160a01b03821661075557600380548290039055610774565b6001600160a01b03821660009081526001602052604090208054820190555b816001600160a01b0316836001600160a01b03167fddf252ad1be2c89b69c2b068fc378daa952ba7f163c4a11628f55a4df523b3ef836040516107b991815260200190565b60405180910390a3505050565b600060208083528351808285015260005b818110156107f3578581018301518582016040015282016107d7565b506000604082860101526040601f19601f8301168501019250505092915050565b80356001600160a01b038116811461082b57600080fd5b919050565b6000806040838503121561084357600080fd5b61084c83610814565b946020939093013593505050565b60006020828403121561086c57600080fd5b61087582610814565b9392505050565b60008060006060848603121561089157600080fd5b61089a84610814565b92506108a860208501610814565b9150604084013590509250925092565b600080604083850312156108cb57600080fd5b6108d483610814565b9150602083013580151581146108e957600080fd5b809150509250929050565b6000806040838503121561090757600080fd5b61091083610814565b915061091e60208401610814565b90509250929050565b600181811c9082168061093b57607f821691505b60208210810361095b57634e487b7160e01b600052602260045260246000fd5b50919050565b808201808211156102f557634e487b7160e01b600052601160045260246000fdfea2646970667358221220c7885a3cfcf2c89258924e8abaffee39f4f13e11386c2e6635bf4ad37c06500264736f6c63430008150033",
    "linkReferences": {}
  },
  "methodIdentifiers": {
    "allowance(address,address)": "dd62ed3e",
    "approve(address,uint256)": "095ea7b3",
    "balanceOf(address)": "70a08231",
    "blacklist(address,bool)": "404e5129",
    "blacklists(address)": "16c02129",
    "decimals()": "313ce567",
    "name()": "06fdde03",
    "owner()": "8da5cb5b",
    "renounceOwnership()": "715018a6",
    "symbol()": "95d89b41",
    "totalSupply()": "18160ddd",
    "transfer(address,uint256)": "a9059cbb",
    "transferFrom(address,address,uint256)": "23b872dd",
    "transferOwnership(address)": "f2fde38b"
  },
  "id": 30
}